:020000040800F2
:10000000C00C0020210A0008250800082708000865
:100010002B0800082F080008330800080000000023
:100020000000000000000000000000003708000889
:1000300039080008000000003B0800083D080008DF
:100040003B0A00083B0A00083B0A00083B0A00087C
:100050003B0A00083B0A00083B0A00083B0A00086C
:100060003B0A00083B0A00083B0A00083B0A00085C
:100070003B0A00083B0A00083B0A00083B0A00084C
:100080003B0A00083B0A00083B0A00083B0A00083C
:100090003B0A00083B0A00083B0A00083B0A00082C
:1000A0003B0A00083B0A00083B0A00083B0A00081C
:1000B0003B0A0008570700083B0A00083B0A0008F3
:1000C0003B0A00083B0A00083B0A00083B0A0008FC
:1000D0003B0A00083B2A00083B0A00083B0A0008CC
:1000E0003B0A00083B0A00083B0A00083B0A0008DC
:1000F0003B0A00083B0A00083B0A00083B0A0008CC
:100100003B0A00083B0A00083B0A00083B0A0008BB
:100110003B0A00083B0A00083B0A00083B0A0008AB
:100120003B0A00083B0A00083B0A00083B0A00089B
:1001300000F002F800F03AF80AA090E8000C8244BF
:100140008344AAF10107DA4501D100F02FF8AFF29C
:10015000090EBAE80F0013F0010F18BFFB1A43F0A5
:1001600001031847AC530000CC530000103A24BFE1
:1001700078C878C1FAD8520724BF30C830C144BF0C
:1001800004680C607047000000230024002500264E
:10019000103A28BF78C1FBD8520728BF30C148BFEA
:1001A0000B6070471FB51FBD10B510BD03F0C5F83B
:1001B0001146FFF7F7FF00F0E8FA03F0E3F803B4A5
:1001C000FFF7F2FF03BC02F0DDFB000010B50024D6
:1001D00009E021011031C8B201232246002102F0BA
:1001E000B6FF601CC4B2062CF3DB062407E0102324
:1001F000FEA22021084603F045F8601CC4B20C2C76
:10020000F5DB02F051FE10BDF8B5FA48006803F0C6
:10021000A9FAC4B2F7480568204603F0C3FA0646B7
:10022000294603F004FC0546F349284603F002FB87
:1002300005461023F1A20021202003F023F810230B
:10024000EFA20021502003F01DF801230C22002111
:10025000302002F07CFF01230D220021402002F01B
:1002600076FF01230E221021002002F070FF0123EF
:100270000F221021084602F06AFF012308221021F4
:10028000202002F064FF1020012322460146009046
:10029000282002F0ADFF012010232E2219460090E5
:1002A000302002F0D5FE284603F040FA0646102022
:1002B0000323324601460090382002F099FF1023B4
:1002C000D0A21946582002F0DDFF10200323009031
:1002D000CD4810210268682002F08AFF1023CBA2CB
:1002E0002021002002F0CEFF102003230090C948F7
:1002F00020210268084602F07BFF1023C6A23021AD
:10030000002002F0BFFF102003230090C4483021DA
:100310000268202002F06CFF02F0C6FDF8BD014625
:10032000002901DA484270470846FCE770B5BD482D
:10033000007801284BD10020BA4908707F2442E0A0
:10034000002506E0E0B20022294602F0CCFD681C40
:10035000C5B2402DF6DBFCB1B3490A5D611EB24B5C
:10036000595C501AFFF7DBFF012825DDAE48015D1F
:10037000601EAD4A105C81420FDD601E11460D5CAF
:1003800006E0E0B20122294602F0ADFD681CC5B2CC
:10039000A548005DA842F4DC0EE0A348055D06E038
:1003A000E0B20122294602F09EFD681CC5B2601E23
:1003B0009D49085CA842F3DC9B4A115DE0B2012232
:1003C00002F091FD641E002CBADA02F06DFD70BDE2
:1003D0002DE9F047002002F0B7FB0446204603F069
:1003E000E1F9814603F008F907464FF066328F4B7A
:1003F00003F004F8054602F0CFFF7E490860A01024
:1004000081490860BDE8F08710B52021884800F0D8
:10041000B0FE10B90120874908708648007801288D
:1004200018D12021824800F0A4FE012812D100201A
:100430008049087002F0A6FD7F48007808B90120C5
:1004400006E07D480078012801D1022000E000206C
:100450007949087010BD10B5784A1268784B1B684E
:10046000D21A784B1A60684A1268774B1B689A4216
:1004700014DA684A1268052392FBF3F202EB420297
:10048000704B1B689A4209DA5F4A12686F4B1B680F
:100490009A4203DA5C4A12686C4B1A605A4A126834
:1004A000694B1B689A4209DD574A1268684B1B6802
:1004B0009A4203DD544A1268654B1A60614A126819
:1004C000FA2A61DD504A12685F4B1B689A425BDD75
:1004D000604A1278002A57D14E4A1268052392FBCF
:1004E000F3F202EB4202574B1B689A424CDA0122AC
:1004F000584B1A70514A1268514B1B68D21A454B1F
:100500001A604E4A12684E4B1A60534A12786AB10A
:100510000022514B1A70002006E03E4A12684F4BF1
:1005200043F82020421CD0B20928F6DD4C4A12784C
:1005300032B100224A4B1A700122474B1A7010BD8B
:10054000002100200BE0454B421C53F8222043F8C9
:1005500020201A4652F820201144421CD0B208280C
:10056000F1DD2C4A12683D4B5A621A46526A114418
:100570000A22B1FBF2F14EF66022B2FBF1F2284BF7
:100580001A600122374B1A701F4A12682E4B1B68E3
:100590009A421EDA2F4A1278012A1AD100222D4BD4
:1005A0001A702B4A1268294B1B68D21A2E4B1A60FC
:1005B0001A6802EBD273254C246804EB6303224CC7
:1005C000236022461268224B1A60224612681F4B93
:1005D0001A601C4A126840F6C4139A4252DD4FF466
:1005E0000072194B1A601A4B1A603FE0444159637C
:1005F000656E67000000002000007A443E3E000067
:100600003C3C0000533A00000C0000204942493AAB
:10061000000000001000002042504D3A0000000091
:1006200008000020070000206C00002066664A3F9A
:1006300000100140360000200400002018000020B7
:100640001C00002030000020280000202400002092
:100650002000002014000020350000206C01002044
:1006600034000020150000202C0000205B4B1A6095
:100670005B4A12685B4B1A6001225B4B1A700022C6
:100680005A4B1A7000BF5AE72DE9F04758480078D6
:10069000401C57490870084600780A2859D10020A4
:1006A00008700120534908705348006803F05AF855
:1006B00000F0FF095048D0F800A0484603F072F857
:1006C0000546514603F0B3F982464C49504603F0C3
:1006D000B1F882464A49504603F078F802D2DFF872
:1006E00020A106E04749504603F070F901D2DFF837
:1006F00014A14549504603F0A5F98246504602F040
:100700007BFF0746414A424B02F078FE054602F065
:1007100043FE824651464FF0854003F093F98246EE
:100720003C4890F87F003C4981F87F007E2408E037
:100730003848005D38490855601C085C3549085543
:10074000641E002CF4DA504603F00CF8314981F8AD
:100750007F00BDE8F08710B50121304801F08FFE21
:1007600090B101212D4801F09BFE1D480068801CBE
:100770001B490860FFF72CFEFFF76DFE2848007844
:10078000022801D1FFF780FF10BD02F091F84FF46D
:10079000A06000F065F902F0AFFD02F037FA02F058
:1007A00006FC02F08FF941F61F41132002F0FEF91A
:1007B00013E01B48007820B1012805D0022809D198
:1007C00005E0FFF703FD05E0FFF71EFD02E0FFF780
:1007D000ADFD00BF00BFFFF717FEEAE724000020D1
:1007E000180000201C0000203400002035000020EC
:1007F0003700002007000020000000200000C84251
:10080000000034420000A04200004842CDCCCCCCD5
:10081000CCCCFC3F6C000020EC0000200004004029
:1008200004000020704700BFFEE700BFFEE700BFE6
:10083000FEE700BFFEE77047704770477047000053
:100840000CB50020019000906C48006840F48030A6
:100850006A49086000BF6948006800F400300090F1
:100860000198401C0190009818B90198B0F5A06F4C
:10087000F1D16248006800F4003010B1012000900E
:1008800001E0002000900098012843D15C480068F6
:1008900040F010005A4908600846006820F0030044
:1008A00008600846006840F002000860534840684D
:1008B000524948600846406848600846406840F42D
:1008C000806048600846406820F47C104860084614
:1008D000406840F4E81048600846006840F08070C6
:1008E000086000BF4548006800F000700028F9D09B
:1008F0004248406820F0030040494860084640688C
:1009000040F00200486000BF3C48406800F00C0026
:100910000828F9D10CBD10B5FFF792FF10BD10B536
:100920003648006840F001003449086008464068D5
:100930003449084031494860084600683249084057
:100940002E4908600846006820F4802008600846A8
:10095000406820F4FE0048604FF41F008860FFF7F5
:10096000DAFF4FF000602949086010BD10B5002182
:1009700000200022214B5B6803F00C0121B1042907
:1009800006D0082928D107E0214B224C236027E01C
:100990001F4B204C236023E0184B5B6803F470105E
:1009A000164B5B6803F48032022303EB904022B9BC
:1009B000194B4343174C23600DE0104B5B6803F465
:1009C000003323B1144B4343124C236003E0104B1C
:1009D0004343104C236003E00D4B0E4C236000BFDB
:1009E00000BF064B5B68C3F303130C4CE15C094B7F
:1009F0001B68CB40074C236010BD00000010024074
:100A0000002002400000FFF8FFFFF6FE08ED00E0C6
:100A100000127A003800002000093D003C00002050
:100A20000948804709480047FEE7FEE7FEE7FEE782
:100A3000FEE7FEE7FEE7FEE7FEE7FEE704480549BE
:100A4000054A064B704700001F09000831010008E5
:100A5000C0060020C00C0020C0080020C0080020F4
:100A600031490143314A1160704770B500210023BC
:100A70000F22C47804B32D4C246804F4E064C4F558
:100A8000E064210AC1F10403CA40447804FA03F186
:100A90008478144021430901254C0678A155047837
:100AA00004F01F050124AC4005786D11AD0005F17F
:100AB000E025C5F8004109E0047804F01F05012491
:100AC000AC401C4D0678761145F8264070BD1A4A98
:100AD0000A400243154B1B1F1A60704739B1134A75
:100AE000121D12680243114B1B1D1A6006E00F4ACB
:100AF000121D126882430D4B1B1D1A60704704289B
:100B000008D14FF0E021096941F004014FF0E022E3
:100B1000116107E04FF0E021096921F004014FF075
:100B2000E0221161704700000000FA050CED00E0C2
:100B300000E400E080E100E080FFFF1F10B5044604
:100B4000FA48844208D10121401500F055FD0021EA
:100B5000601500F051FD17E0F548844208D10121ED
:100B6000001500F049FD0021201500F045FD0BE0C7
:100B7000F048844208D10121C80300F03DFD002166
:100B80004FF4004000F038FD10BD30B502460020A3
:100B900000235068E84C20400D790C6844EA052495
:100BA000204350609068E54C2040D1E902542C432A
:100BB0004D7944EA450420439060D06A20F47000E7
:100BC0000C7C641EE4B2234340EA0350D06230BD83
:100BD00000210160017141718160C16001210174D6
:100BE000704721B1826842F00102826003E08268AE
:100BF00022F001028260704721B1826842F4807263
:100C0000826003E0826822F480728260704710B5CF
:100C10000023CBB21AB144681C43446002E044682C
:100C20009C43446010BD816841F0080181607047B9
:100C3000014600208A6802F008020AB1012000E0A3
:100C400000207047816841F00401816070470146CF
:100C500000208A6802F004020AB1012000E00020AE
:100C6000704721B1826842F4A002826003E082688A
:100C700022F4A00282607047014600208A6802F4D4
:100C800080020AB1012000E00020704710B50A463A
:100C900000210023416821F46041531E41EA4331A1
:100CA000416010BD21B1426842F40062426003E03D
:100CB000426822F4006242607047F0B504460D4677
:100CC00000200021092D11DDE068A5F10A0606EBE0
:100CD0004607072606FA07F18843A5F10A0606EB40
:100CE000460603FA06F10843E0600CE0206905EBD4
:100CF0004507072606FA07F1884305EB450603FA80
:100D000006F108432061072A0FDA606B561E06EBD6
:100D100086071F2606FA07F18843561E06EB86064D
:100D200005FA06F10843606322E00D2A0FDA206B12
:100D3000D61F06EB86071F2606FA07F18843D61F43
:100D400006EB860605FA06F10843206310E0E06A28
:100D5000A2F10D0606EB86071F2606FA07F1884367
:100D6000A2F10D0606EB860605FA06F10843E062DD
:100D7000F0BD21B1826842F48012826003E0826893
:100D800022F48012826070470146C86C80B27047BE
:100D900066484C300068704721B1426842F4806276
:100DA000426003E0426822F480624260704721B1F1
:100DB000426842F48052426003E0426822F480526A
:100DC000426070470A460021816821F4E0411143E6
:100DD0008160704721B1826842F40042826003E082
:100DE000826822F400428260704721B1826842F436
:100DF0000212826003E0826822F40212826070476D
:100E0000014600208A6802F400120AB1012000E0C5
:100E100000207047F0B50446154600200022002649
:100E2000092911DDE068A1F10A0707EB470C072744
:100E300007FA0CF29043A1F10A0707EB470703FA00
:100E400007F21043E0600CE0206901EB410C07273A
:100E500007FA0CF2904301EB410703FA07F2104343
:100E60002061A06BC0F30156EF1C06F1010CA7EB4B
:100E70000C0707EB870C1F2707FA0CF29043EF1CB7
:100E800006F1010CA7EB0C0707EB870701FA07F245
:100E90001043A063F0BD10B50A4600210023816B0A
:100EA00021F44011531E41EA0351816310BD08B57E
:100EB000002300930090009B0B440093009B1A605A
:100EC00008BD08B5024600200090009201F12800FC
:100ED000009B184400900098006880B208BD0A4644
:100EE00000214168164B194011434160704741622F
:100EF000826270470A460021416821F01F011143B8
:100F00004160704740B109490831096841F4000166
:100F1000064A0832116007E004490831096821F4E3
:100F20000001024A083211607047000000240140AD
:100F300000280140003C0140FFFEF0FFFDF7F1FFFB
:100F4000FFFD3FFF0246002013680B400BB101205C
:100F500000E000207047CA430260704770B5024647
:100F60000020002300240B125568CEB205EA0604C7
:100F700015681D4015B10CB1012000E0002070BDC6
:100F800000220A12D34303607047000010B50446E4
:100F9000CC48844208D10121042000F02DFB00211F
:100FA000042000F029FB46E0C748844208D1012113
:100FB000082000F021FB0021082000F01DFB3AE092
:100FC000C248844208D10121102000F015FB002105
:100FD000102000F011FB2EE0BD48844208D1012111
:100FE000202000F009FB0021202000F005FB22E07A
:100FF000B848844208D10121402000F0FDFA0021C8
:10100000402000F0F9FA16E0B348844208D10121EB
:10101000802000F0F1FA0021802000F0EDFA0AE0D3
:10102000AE48844207D10121801500F0E5FA002185
:10103000A01500F0E1FA10BD10B50121084600F03E
:10104000DBFA0021012000F0D7FA10BD2DE9F041B4
:10105000024600250026002000230024002791F8E6
:1010600003C00CF00F0591F803C00CF0100CBCF19C
:10107000000F03D091F802C04CEA050591F800C0BA
:10108000BCF1000F31D0146800202BE04FF0010CB0
:101090000CFA00F3B1F800C00CEA03069E4220D11E
:1010A00083004FF00F0C0CFA03F7BC4305FA03FC66
:1010B0004CEA040491F803C0BCF1280F06D14FF0AC
:1010C000010C0CFA00FCC2F814C00AE091F803C04D
:1010D000BCF1480F05D14FF0010C0CFA00FCC2F82E
:1010E00010C0401C0828D1D31460B1F800C0BCF176
:1010F000FF0F34DD546800202EE000F1080C4FF0A3
:10110000010808FA0CF3B1F800C00CEA03069E428D
:1011100021D183004FF00F0C0CFA03F7BC4305FA02
:1011200003FC4CEA040491F803C0BCF1280F05D17C
:1011300000F1080C08FA0CF8C2F8148091F803C00A
:10114000BCF1480F07D100F1080C4FF0010808FA74
:101150000CF8C2F81080401C0828CED35460BDE8BB
:10116000F0814FF6FF710180022181700421C1706E
:1011700070470246002093680B400BB1012000E04D
:10118000002070470146886880B270470246002000
:10119000D3680B400BB1012000E0002070470146EE
:1011A000C86880B2704701617047416170470AB1F9
:1011B000016100E041617047C16070474FF48032C7
:1011C0000A43826181618261826982697047024655
:1011D0000020434B18684FF68073184040EA021015
:1011E00008433F4B186070473E49C8617047F0B5EF
:1011F0000A46002300240021002500F00046B6F135
:10120000004F02D1364EF16901E0354E7168C0F3EE
:10121000034583B200F44016B6F5401F08D121F013
:1012200070612F4E766826F070662D4F7E6012E05A
:1012300000F48016B6F5801F06D1032606FA05F4E1
:10124000A14341F0706106E0460D360103FA06F64F
:10125000B14341F0706122B1460D360103FA06F642
:10126000314300F00046B6F1004F02D11C4EF1614F
:1012700001E01B4E7160F0BD30B500228B071C0FE2
:101280000F2303FA04F2164B08338C1053F8243062
:101290009343134C08348D1044F8253023468C10AA
:1012A00053F824308C07240F00FA04F423430C4C29
:1012B00008348D1044F8253030BD0A49DC3108600F
:1012C0007047000000080140000C01400010014080
:1012D0000014014000180140001C014000200140A2
:1012E0000000014000002042DF48006840F001009B
:1012F000DD49086008464068DC490840DA49486032
:1013000008460068DA490840D7490860084600687E
:1013100020F4802008600846406820F4FE00486001
:101320004FF41F0088607047CF49096821F480316D
:10133000CD4A11601146096821F480211160B0F591
:10134000803F03D0B0F5802F0ED106E0C649096872
:1013500041F48031C44A116007E0C349096841F48F
:10136000A021C14A116000E000BF00BF704710B566
:1013700001460022002300204A11012A02D1BA4C62
:10138000236806E0022A02D1B74C236A01E0B64C7A
:10139000636A01F01F02012494401C400CB101203B
:1013A00000E0002010BD38B500200090002400258A
:1013B00000BF3120FFF7DBFF05460098401C00907E
:1013C0000098B0F5A06F01D0002DF2D03120FFF7CA
:1013D000CEFF08B1012400E00024204638BD0146BC
:1013E0000020A14A106820F0F80040EAC100106017
:1013F0007047A04908607047024600209A4B586821
:1014000020F47C1042EA01031843974B5860704760
:1014100098490866704701460020934A506820F0BA
:1014200003000843506070478F48406800F00C008C
:101430007047014600208C4A506820F0F0000843B5
:101440005060704701460020874A506820F4E060F1
:1014500008435060704701460020834A506820F4DA
:10146000605040EAC1005060704729B17E4A527A0C
:1014700002437D4B5A7204E07B4A527A82437A4B94
:101480005A7270477B49D831086070470146002086
:10149000754A506820F4404008435060704700216E
:1014A000714A20321170704A82F82010012802D04F
:1014B00004280AD104E001216B4A2032117005E0B2
:1014C0000521694A2032117000E000BF00BF70475B
:1014D0006949086070476449096A0143624A1162B8
:1014E0007047654944390860704730B500210022D3
:1014F000002400235C4D6D6805F00C0121B1042926
:1015000005D0082923D105E05C4D056022E05B4D44
:1015100005601FE0544D6D6805F47012524D6D6802
:1015200005F48034022505EB92421CB9544D554315
:1015300005600BE04C4D6D6805F400351DB1504D54
:101540005543056002E04D4D5543056002E04B4DAB
:10155000056000BF00BF444D6D6805F0F00109094A
:10156000484D6B5C0568DD4045603F4D6D6805F496
:10157000E061090A434D6B5C4568DD4085603A4D8A
:101580006D6805F46051C90A3E4D6B5C4568DD40ED
:10159000C560354D6D6805F44041890B3A4D6B5C73
:1015A000C568B5FBF3F5056130BD29B12E4A526916
:1015B00002432D4B5A6104E02B4A526982432A4B65
:1015C0005A61704729B1284A92690243264B9A61B1
:1015D00004E0254A92698243234B9A61704729B1FE
:1015E000214AD2690243204BDA6104E01E4AD269E3
:1015F00082431D4BDA61704729B11B4AD26802430E
:10160000194BDA6004E0184AD2688243164BDA605C
:10161000704729B1144A12690243134B1A6104E05E
:10162000114A12698243104B1A61704712494039BE
:10163000086070470F49C86470470B49C87170470C
:101640000948406A40F08070074948627047014687
:101650000020054A92680A400AB1012000E00020FB
:101660007047014988727047001002400000FFF87F
:10167000FFFFF6FE000042428004424200127A0060
:1016800000093D004C0000205C00002010B504461D
:10169000FE48844208D10121C014FFF7ADFF0021AC
:1016A000E014FFF7A9FFC4E0B4F1804F08D1012195
:1016B0000846FFF7AEFF00210120FFF7AAFFB8E0C0
:1016C000F348844208D101210220FFF7A2FF002144
:1016D0000220FFF79EFFACE0EE48844208D10121D2
:1016E0000420FFF796FF00210420FFF792FFA0E0FF
:1016F000E948844208D101210820FFF78AFF002130
:101700000820FFF786FF94E0E448844208D10121D5
:101710001020FFF77EFF00211020FFF77AFF88E0FE
:10172000DF48844208D101212020FFF772FF002109
:101730002020FFF76EFF7CE0DA48844208D10121C7
:101740004014FFF759FF00216014FFF755FF70E0C8
:10175000D548844209D10121C804FFF74DFF00217B
:101760004FF40020FFF748FF63E0D048844209D1DE
:1017700001210805FFF740FF00214FF48010FFF71B
:101780003BFF56E0CA48844209D101214805FFF7D2
:1017900033FF00214FF40010FFF72EFF49E0C5484A
:1017A000844208D101214020FFF733FF002140206F
:1017B000FFF72FFF3DE0C048844208D1012180207F
:1017C000FFF727FF00218020FFF723FF31E0BB4810
:1017D000844208D101218015FFF71BFF0021A015CD
:1017E000FFF717FF25E0B648844209D1012108041C
:1017F000FFF702FF00214FF48030FFF7FDFE18E0F5
:10180000B048844209D101214804FFF7F5FE0021C8
:101810004FF40030FFF7F0FE0BE0AB48844208D1F4
:1018200001218804FFF7E8FE00214FF48020FFF734
:10183000E3FE10BD00220288944B98420ED0994BD3
:1018400098420BD0B0F1804F08D0914B984205D010
:10185000904B984202D0904B984204D14FF68F7330
:101860001A404B881A438D4B984207D08C4B9842B4
:1018700004D04FF6FF431A40CB881A4302808B886E
:1018800083850B880385814B98420BD0854B98420A
:1018900008D08B4B984205D08A4B984202D08A4B95
:1018A000984201D10B7A038601238382704770B579
:1018B000002400220023058C4FF6FE763540058477
:1018C000028C8388048B4FF68F752C40B51E2C40FC
:1018D0000D882C43751E2A400D892A434D882A43C2
:1018E0006A4DA8420BD06F4DA84208D0744DA84253
:1018F00005D0744DA84202D0734DA84213D14FF6C3
:10190000F7752A404D892A434FF6FB752A408D888A
:101910002A434FF6FF652B404FF6FF552B408D892C
:101920002B43CD892B4383800483CD888586028415
:1019300070BD70B5002400220023058C4FF6EF76B1
:1019400035400584028C8388048B48F6FF752C4053
:101950004FF6FF452C400D884FF6FF7606EA052529
:101960002C434FF6DF752A400D8906EA05152A43F8
:101970004D8806EA05152A43444DA84202D0494D38
:10198000A8421DD14FF67F752A404D894FF6FF764C
:1019900006EA05152A434FF6BF752A408D8806EAE8
:1019A00005152A434FF6FF352B404FF2FF752B40AC
:1019B0008D8906EA85052B43CD8906EA85052B43EB
:1019C00083800483CD880587028470BD70B50024B0
:1019D00000220023058C4FF6FF6635400584028CFB
:1019E0008388848B4FF68F752C404FF6FC752C4006
:1019F0000D882C434FF6FF552A400D894FF6FF7690
:101A000006EA05252A434D8806EA05252A431F4D87
:101A1000A84202D0234DA8421DD14FF2FF752A40A3
:101A20004D894FF6FF7606EA05252A434FF6FF3526
:101A30002A408D8806EA05252A434EF6FF752B407D
:101A40004DF6FF752B408D8906EA05152B43CD8990
:101A500006EA05152B4383808483CD88858702841D
:101A600070BD70B5002200230024058C4EF6FF7671
:101A700035400584038C8488828B48F6FF752A40A4
:101A80004FF6FF452A400D8820E00000002C014061
:101A90000004004000080040000C0040001000401E
:101AA0000014004000340140004C0140005001404F
:101AB0000054014000180040001C0040002000407D
:101AC0000040014000440140004801404FF6FF76CD
:101AD00006EA05252A434DF6FF752B400D8906EAD7
:101AE00005352B434D8806EA05352B43FA4DA842B0
:101AF00002D0FA4DA84208D14BF6FF752C408D89D3
:101B00004FF6FF7606EA85152C4384808283CD88C4
:101B1000A0F84050038470BD828B4FF2FF331A400F
:101B20008283828B4FF6FF7303EA01231A43828379
:101B30007047F0B50C461546002200210026078CA0
:101B40004EF6FF7C07EA0C070784828B018C4FF668
:101B5000FF7707EA043640F6FF473A404FF6FF7733
:101B600007EA05273A434FF6FF7707EA03373A4378
:101B7000D94FB8420ED0D94FB8420BD0B0F1804FF8
:101B800008D0D74FB84205D0D64FB84202D0D64F72
:101B9000B84206D14DF6FF77394046F480573943B5
:101BA00005E047F6FF57394044F4805739438283B4
:101BB0000184F0BD828B4FF6F3731A408283828BCF
:101BC0000A4382837047F0B50C4615460022002177
:101BD0000026078C4FF6FF6C07EA0C070784828B00
:101BE000018C4FF6FF7707EA04264FF60C773A4050
:101BF0004FF6FF7707EA03172F433A43B64FB84231
:101C00000ED0B64FB8420BD0B0F1804F08D0B44FD1
:101C1000B84205D0B34FB84202D0B34FB84206D154
:101C20004FF6FF57394046F48077394305E04FF2CD
:101C3000FF57394044F48077394382830184F0BDF3
:101C4000028B4FF2FF331A400283028B4FF6FF7371
:101C500003EA01231A4302837047F0B50C46154688
:101C6000002200210026078C4FF6EF7C07EA0C07C4
:101C70000784028B018C4FF6FF7707EA041640F6C3
:101C8000FF473A404FF6FF7707EA03373A434FF6EC
:101C9000FF7707EA05273A438F4FB8420ED08F4FA0
:101CA000B8420BD0B0F1804F08D08D4FB84205D06C
:101CB0008C4FB84202D08C4FB84206D14FF6DF7736
:101CC000394046F01007394305E04FF65F77394059
:101CD00044F01007394302830184F0BD028B4FF6B4
:101CE000F3731A400283028B0A4302837047F0B5F4
:101CF0000C46154600220021068C4FF6FE773E402A
:101D00000684028B018C4FF60C7632407E1C06EA6C
:101D100003162E433243704EB0420ED06F4EB04287
:101D20000BD0B0F1804F08D06D4EB04205D06D4E53
:101D3000B04202D06C4EB04206D14FF6FD76314033
:101D400044F00106314305E04FF6F576314044F0AA
:101D50000106314302830184F0BD70B505460C468F
:101D60005D4885420ED05D4885420BD0B5F1804F6D
:101D700008D05B48854205D05A48854202D05A486F
:101D8000854200D100E000BF208850B92389A28895
:101D900061882846FFF7ABFFE1882846FFF79EFFE2
:101DA00025E0208804280AD12389A2886188284652
:101DB000FFF753FFE1882846FFF742FF17E020882E
:101DC00008280AD12389A28861882846FFF7FBFEEC
:101DD000E1882846FFF7EEFE09E02389A2886188A2
:101DE0002846FFF7A6FEE1882846FFF795FE70BD5E
:101DF0002DE9F04105460C4600260127608808B908
:101E0000022600E00026A088012801D1022700E078
:101E100001272088A0B92389A28861882846FFF776
:101E200066FFE1882846FFF759FF23893A46314685
:101E30002846FFF712FFE1882846FFF701FF13E06D
:101E40002389A28861882846FFF707FFE188284692
:101E5000FFF7F6FE23893A4631462846FFF747FF4B
:101E6000E1882846FFF73AFFBDE8F0810A884B88F1
:101E70001A438B881A43CB881A430B891A434B8920
:101E80001A438B891A43A0F8442070474FF6FF711C
:101E9000818000210180C180418001727047002152
:101EA000018041808180C180018141818181C18126
:101EB0007047002101804180012181800021C18083
:101EC000018170470021018041808180C1800181B2
:101ED0004181818170470000002C014000340140A5
:101EE0000004004000080040000C004021B10288BE
:101EF00042F00102028004E002884FF6FE731A40AD
:101F00000280704731B1B0F8442042F40042A0F89A
:101F1000442005E0B0F84420C2F30E02A0F84420AB
:101F200070471AB183890B43838102E083898B4315
:101F3000838170478182704741EA0203A0F84830EC
:101F400070471AB183890B43838102E083898B43F5
:101F50008381704701894FF6F87211400181704703
:101F60000A46002101894FF68F7319401143018100
:101F7000704730B504460D4629462046FFF7F0FF6E
:101F8000208940F00700208130BD2DE9F041044652
:101F90000D4616461F46602D06D13B4601223146AE
:101FA0002046FFF75AFE05E03B4601223146204617
:101FB000FFF79DFE29462046FFF7D2FF208940F01B
:101FC00007002081BDE8F08130B50C460021018971
:101FD000C9B24FF6FF7505EA03251543254329438A
:101FE000018130BD2DE9F04105460E461746984661
:101FF000002443463A4631462846FFF7E5FF2C8940
:102000004FF6F870044044F007044FF68F70044018
:1020100044F070042C81BDE8F081F0B504460D4613
:1020200016461F463B46324629462046FFF7CCFF60
:10203000208940F480402081F0BD01858282704774
:102040000A46002101884FF68F7319401143018021
:102050007047F0B50C4615461E46002100220023AD
:102060000189028B038C4FF6F877394021434FF6F4
:10207000FC473A4040F201173A434FF6DD773B40C8
:102080004FF6FF7707EA06172F433B430181028390
:102090000384F0BD0A460021018B4FF68F7319406F
:1020A0001143018370470A460021018B48F6FF73F4
:1020B00019404FF6FF7303EA022319430183704767
:1020C0000A460021818B4FF68F731940114381839B
:1020D00070470A460021818B48F6FF7319404FF67E
:1020E000FF7303EA022319438183704721B10288F9
:1020F00042F08002028004E002884FF67F731A40AB
:102100000280704721B1828842F00402828004E09C
:1021100082884FF6FB731A408280704721B1828813
:1021200042F00802828004E082884FF6F7731A407A
:102130008280704721B1828842F00102828004E0EF
:1021400082884FF6FE731A40828070470A4600214B
:10215000018B4FF6F77319401143018370470A460C
:102160000021018B4FF2FF7319404FF6FF7303EA12
:1021700002231943018370470A460021818B4FF6E1
:10218000F77319401143818370470A460021818B00
:102190004FF2FF7319404FF6FF7303EA022319430E
:1021A000818370470A460021018B4FF6FB7319406B
:1021B0001143018370470A460021018B4FF6FF331C
:1021C00019404FF6FF7303EA022319430183704756
:1021D0000A460021818B4FF6FB731940114381831E
:1021E00070470A460021818B4FF6FF3319404FF6A6
:1021F000FF7303EA02231943818370470A460021D3
:10220000018B4FF67F7319401143018370470A46D3
:102210000021018BC1F30E014FF6FF7303EA022385
:102220001943018370470A460021818B4FF67F7363
:1022300019401143818370470A460021818BC1F305
:102240000E014FF6FF7303EA02231943818370479F
:102250000A460021018C4FF6FD7319401143018499
:1022600070470A460021018C4FF6F773194011435D
:10227000018470470A460021018C4FF6DF73194034
:102280004FF6FF7303EA02131943018470470A46AD
:102290000021018C4FF67F7319404FF6FF7303EA5C
:1022A00002131943018470470A460021018C4FF63E
:1022B000FF5319404FF6FF7303EA022319430184C9
:1022C00070470A460021018C4FF2FF7319404FF608
:1022D000FF7303EA02231943018470470A46002171
:1022E000018C4DF6FF7319404FF6FF7303EA02337A
:1022F00019430184704730B5002301248C40A3B2F8
:10230000048C9C430484048C02FA01F5ADB22C4386
:10231000048430BD30B5002304248C40A3B2048C67
:102320009C430484048C02FA01F5ADB22C4304846E
:1023300030BD70B503460020002418461830012532
:102340008D40ACB21D8CA5431D8409B1082909D16B
:1023500000EB6100056825F0700505600568154310
:1023600005600EE00D1FC5F34E052844056825F4F1
:10237000E045056005684FF6FF7606EA022635431C
:10238000056070BD21B1028842F00202028004E0C3
:1023900002884FF6FD731A400280704721B102880F
:1023A00042F00402028004E002884FF6FB731A40F8
:1023B0000280704721B1828842F08002828004E06E
:1023C00082884FF67F731A408280704702884FF6EA
:1023D000F7731A40028002880A430280704782889D
:1023E0004FF68F731A40828082880A43828070473A
:1023F00002894FF6F8731A40028102890A4302816A
:10240000704702894FF67F731A40028102890A439E
:10241000028170478184704781857047818670474B
:102420000187704781877047A0F840107047028885
:102430004FF6FF431A40028002880A430280704729
:102440000146888E70470146088F70470146888F85
:1024500070470146B1F8400070470146888C7047CC
:102460000146088D704702460020138A0B400BB1CD
:10247000012000E000207047CA430282704730B557
:102480000246002000230024158A05EA01039589ED
:1024900005EA010413B10CB1012000E0002030BDB9
:1024A000CA4302827047000010B50446FB488442CC
:1024B00009D101218803FFF79FF800214FF48040E4
:1024C000FFF79AF832E0F648844209D10121480426
:1024D000FFF79FF800214FF40030FFF79AF825E04E
:1024E000F048844209D101218804FFF792F80021C5
:1024F0004FF48020FFF78DF818E0EB48844209D1B3
:102500000121C804FFF785F800214FF40020FFF7F0
:1025100080F80BE0E548844208D101210805FFF767
:1025200078F800214FF48010FFF773F810BD2DE903
:10253000F04786B005460E460024A24600BFA146DD
:102540000027B08900B100BF2F462C8A4CF6FF70DF
:102550000440F08804432C82AC894EF6F31004400A
:10256000B08831890843718908430443AC81AC8A3F
:102570004FF6FF400440B0890443AC8201A8FEF747
:10258000B4FFC648874202D1DDF810A001E0DDF8B3
:102590000CA0A88900F4004040B10AEBCA0000EB8F
:1025A0000A1031684900B0FBF1F807E00AEBCA00F5
:1025B00000EB0A1031688900B0FBF1F86420B8FB29
:1025C000F0F004012009642101FB1089A88900F4BE
:1025D000004040B1322000EBC900B0FBF1F000F048
:1025E0000700044308E0322000EB09106421B0FB2F
:1025F000F1F000F00F0004432C8106B0BDE8F08735
:102600004FF41651016000218180C18001810C21AD
:10261000418100218181704710B502460020108A57
:102620004FF2FF0318400B884C8823438C882343C8
:10263000CC8823431843108210BD002101804180C3
:102640008180C180704721B1828942F40052828129
:1026500004E082894DF6FF731A4082817047F0B51D
:102660000346002400260025002040F66A17B942E0
:1026700000D100BF1846C1F3421401F01F06012724
:1026800007FA06F5012C01D10C3004E0022C01D12F
:10269000103000E014301AB107682F43076002E0E1
:1026A0000768AF430760F0BD1AB1838A0B4383828A
:1026B00002E0838A8B4383827047028A4FF6F0736D
:1026C0001A400282028A0A430282704782894FF2CC
:1026D000FF731A40828182890A438281704721B147
:1026E000828942F00202828104E082894FF6FD7302
:1026F0001A4082817047028A4FF6DF731A400282C5
:10270000028A0A430282704721B1028A42F480425F
:10271000028204E0028A4BF6FF731A40028270477D
:10272000C1F308028280704701468888C0F3080020
:102730007047818941F0010181817047028BD2B2DB
:102740000283028B42EA012202837047028B02F469
:102750007F420283028B0A430283704721B1828A3F
:1027600042F02002828204E0828A4FF6DF731A4030
:102770008282704721B1828A42F01002828204E094
:10278000828A4FF6EF731A408282704721B1828AA3
:1027900042F00802828204E0828A4FF6F7731A4000
:1027A0008282704721B1828942F40042828103E033
:1027B0008289C2F30E028281704721B1828A42F47B
:1027C0000062828204E0828A4FF2FF731A408282A2
:1027D0007047828A4FF6FB731A408282828A0A43CC
:1027E0008282704721B1828A42F00202828204E032
:1027F000828A4FF6FD731A4082827047024600209B
:10280000B1F5007F00D100BF13880B400BB1012050
:1028100000E00020704701F40072B2F5007F00D1A3
:1028200000BFCA430280704770B5024600240023EF
:102830000025002040F66A16B14200D100BFC1F366
:10284000421501F01F03012606FA03F3012D02D100
:102850009689334006E0022D02D1168A334001E00A
:10286000968A33400C12012606FA04F41688344086
:1028700013B10CB1012000E0002070BD10B50022A2
:10288000002340F66A14A14200D100BF0A120124BD
:102890009440A3B2DC43048010BD00000038014026
:1028A0000044004000480040004C00400050004000
:1028B00010B56FF00400FEF722F92E4800682E498B
:1028C000B0FBF1F02D4908700846007800EB40019C
:1028D000C1EBC0104FF6FF7101EAC0002849088023
:1028E00010BD0146254A12784A434FF0E0235A6151
:1028F00000229A611A46126942F001021A6100BF71
:102900004FF0E022106900F001021AB100F48032A9
:10291000002AF5D04FF0E022126922F001024FF0B8
:10292000E0231A6100229A6170470146144A128816
:102930004A434FF0E0235A6100229A611A46126915
:1029400042F001021A6100BF4FF0E022106900F06E
:1029500001021AB100F48032002AF5D04FF0E022D3
:10296000126922F001024FF0E0231A6100229A61FD
:10297000704700003800002000127A00600000203C
:1029800062000020014600BF704700BF494A12881C
:1029900002F04002002AF9D0C2B2464B1B1D1A8039
:1029A000704710B586B00446012144F20400FEF7DA
:1029B00009FE4FF40070ADF8140003208DF81600E6
:1029C00018208DF8170005A93B48FEF73FFB4FF490
:1029D0008060ADF8140004208DF8170005A9364872
:1029E000FEF734FB25208DF8000003208DF8010050
:1029F0008DF8020001208DF803006846FEF735F8D7
:102A000001940020ADF80800ADF80A00ADF80C0004
:102A1000ADF810000C20ADF80E0001A92548FFF715
:102A200086FD012240F225512248FFF718FE0121C0
:102A30002048FFF708FE06B010BD10B540F2255142
:102A40001C48FFF7F1FE10B31A48FFF76DFEC4B241
:102A50001A48008800F40040C8B91848008800F4FB
:102A6000804060B10A2C03D000201449088020E087
:102A70001248008840F400401049088019E00D2CED
:102A800006D10E48008840F480400C49088010E0D0
:102A90000A480088C0F30D0009490C540748008813
:102AA000401C0649088008460088C72801DD002030
:102AB000088010BD00380140000801406800002077
:102AC0009401002000B587B001214FF40170FEF79A
:102AD00079FD4FF40040FEF7D9FC0120ADF8040069
:102AE00000208DF8070001A92E48FEF7AFFA2E4806
:102AF000FEF724F8002002908DF80C008DF80D00F0
:102B00004FF4602004900020059001208DF81800FB
:102B100002A92548FEF739F801212348FEF761F89C
:102B20002148FEF780F800BF1F48FEF781F8002813
:102B3000FAD11D48FEF786F800BF1B48FEF787F85C
:102B40000028FAD107B000BD10B5044607230122C2
:102B500021461548FEF7B1F801211348FEF781F828
:102B600000BF02211048FEF7EDF90028F9D00E4809
:102B7000FEF70AF910BD2DE9F04107460C46002585
:102B8000002608E03846FFF7DFFF05440520FFF781
:102B9000CCFE701CC6B2A642F4DBB5FBF4F080B2EA
:102BA000BDE8F08100080140002401407FB50546E2
:102BB0000C4601210220FEF712FDADF80850ADF8D9
:102BC00004400020ADF80A00ADF8060001A90E4847
:102BD000FEF730FE012211460B48FFF7A2F91D2037
:102BE0008DF8000000208DF8010003208DF8020010
:102BF00001208DF803006846FDF737FF01210248E8
:102C0000FFF774F97FBD00000004004008B5012102
:102C10000820FEF7D7FC49F28010ADF80000102024
:102C20008DF8030003208DF8020069467A48FEF70C
:102C30000DFA0120794908607949C1F89C0108BD65
:102C400008B58020ADF8000003208DF802001020A8
:102C50008DF8030069467048FEF7F8F908BD08B51D
:102C60008020ADF8000003208DF8020048208DF888
:102C7000030069466848FEF7E9F908BD10B5FFF79B
:102C8000DFFF01206549091F08606549C1F8A001FF
:102C90000420FFF726FE00206049091F0860042079
:102CA000FFF71FFE00205E49C1F8A00110BD10B55E
:102CB000FFF7C6FF0020594908605949C1F89C0137
:102CC0000420FFF70EFE0120544908605449C1F862
:102CD0009C010420FFF705FE10BD10B50024FFF78E
:102CE000BEFF01204D49091F0860FFF7FAFD0120D2
:102CF0004B49C1F8A001FFF7F4FD07E0601CC4B226
:102D0000FA2C03DDFFF7D3FF012010BD43488438C0
:102D100000680028F2D14149086000BFF5E710B50E
:102D200000203E490860FFF78BFF00203C49C1F8B6
:102D30009C010220FFF7D5FD0120384908600220E0
:102D4000FFF7CFFD00203649C1F8A00110BD10B536
:102D5000002032490860FFF773FF01203049C1F8B5
:102D60009C010220FFF7BDFD01202C4908600220D4
:102D7000FFF7B7FD00202A49C1F8A00110BD70B5CA
:102D80000446FFF75DFF002024490860002517E096
:102D9000E0092249091F08606006040E0220FFF7BF
:102DA000A0FD01201E49C1F8A0010220FFF799FDF6
:102DB00000201A4908600220FFF793FD681CC5B285
:102DC000082DE5DB70BD70B505460024FFF747FF11
:102DD000002616E00020114908600220FFF781FD5F
:102DE00001200F49C1F8A0016006040E0B48843889
:102DF000006808B1601CC4B20120FFF772FD701CAE
:102E0000C6B2082EE6DB15B9FFF7A1FF01E0FFF718
:102E100086FF204670BD0000000C0140A0812142C9
:102E20000080214210B50446FFF728FF7820FFF705
:102E3000A6FFFFF752FF4020FFF7A1FFFFF74DFF6E
:102E40002046FFF79CFFFFF748FFFFF730FF10BD5C
:102E500010B50446FFF712FF7820FFF790FFFFF749
:102E60003CFF0020FFF78BFFFFF737FF2046FFF7FF
:102E700086FFFFF732FFFFF71AFF10BD10B58D2058
:102E8000FFF7E6FF1020FFF7E3FFAE20FFF7E0FFBC
:102E900010BD10B58D20FFF7DBFF1420FFF7D8FF22
:102EA000AF20FFF7D5FF10BD70B5002418E004F186
:102EB000B001C8B2FFF7CCFF0020FFF7C9FF102018
:102EC000FFF7C6FF002507E0FE4901EBC501085DDD
:102ED000FFF7A8FF681CC5B2802DF5DB601CC4B2EB
:102EE000082CE4DB70BDF0B5144600267F2801DC19
:102EF0003F2900DDF0BD0B46CF1701EB5777FF10E0
:102F0000C7F10707FAB2CF1701EB5777FF10A1EB14
:102F1000C707FDB2C5F107070123BB40DEB24CB1C4
:102F2000E84B03EBC0039B5C3343E64F07EBC00762
:102F3000BB5408E0E34B03EBC0039B5CB343E14F9E
:102F400007EBC007BB5400BFD4E72DE9F0470646A6
:102F50000F4690469946DDF820A034460CE03D46E9
:102F600006E0524629462046FFF7BDFF681CC5B261
:102F70004D45F6DD601CC4B24445F0DDFFF794FF1B
:102F8000BDE8F08770B500240CE0002506E00020C5
:102F9000CC4901EBC5010855681CC5B2802DF6DB94
:102FA000601CC4B2082CF0DBFFF77EFF70BD10B5CB
:102FB0004FF4FA70FFF7B9FCAE20FFF749FFD520B8
:102FC000FFF746FF5020FFF743FFA820FFF740FF21
:102FD0003F20FFF73DFFD320FFF73AFF0020FFF728
:102FE00037FF4020FFF734FF8D20FFF731FF14201B
:102FF000FFF72EFF2020FFF72BFF0220FFF728FF0F
:10300000A120FFF725FFC020FFF722FFDA20FFF7FE
:103010001FFF1220FFF71CFF8120FFF719FFEF2091
:10302000FFF716FFD920FFF713FFF120FFF710FF7E
:10303000DB20FFF70DFF3020FFF70AFFA420FFF78A
:1030400007FFA620FFF704FFAF20FFF701FF10BD29
:103050002DE9F84F80460F4616461C46BA462046D4
:10306000E31704EB5373DB1021464FEAE47C04EBD7
:103070005C7C4FEAEC0CA4EBCC0CBCF1000F02D052
:103080004FF0010C01E04FF0000C6344224604EBCA
:10309000D27C4FEA6C0C03FB0CF303F0FF0BA6F1A0
:1030A0002000C6B200254EE00C2C07D106EB4600EE
:1030B000854901EB8000405D009013E0102C05D1A4
:1030C000824800EB0610405D00900BE0182C07D101
:1030D00006EBC6007E4901EB8000405D009001E0F8
:1030E000BDE8F88F4FF0000927E0009800F080005D
:1030F00028B1394640460A9AFFF7F5FE09E00A98DA
:1031000008B9012000E00020024639464046FFF79A
:10311000EAFE00984006000E0090781CC7B2A7EBAC
:103120000A00A04205D1574608F1010000F0FF084F
:1031300006E009F1010000F0FF09B9F1080FD4DB46
:1031400000BF681CC5B25D45AEDB00BFC8E72DE916
:10315000F84F80460C4615461E46A3462020009098
:103160006806050E002733E05A4800EB051010F8FA
:1031700007904FF0000A25E009F0800028B13246A0
:1031800021464046FFF7AFFE08E00EB9012000E0FF
:103190000020024621464046FFF7A5FE4FEA49605F
:1031A0004FEA1069601CC4B2A4EB0B00102805D1D3
:1031B0005C4608F1010000F0FF0806E00AF101009A
:1031C00000F0FF0ABAF1080FD6DB00BF781CC7B2C7
:1031D00000988742C8DBBDE8F88F10B50246012091
:1031E00000E050430B00A1F10104E1B2F9D110BDA0
:1031F0002DE9FF4F81B0074691461E460E9D4FF0C8
:10320000000A002439E0301B401EC1B20A20FFF73B
:10321000E4FFB9FBF0F00A21B0FBF1F201FB120868
:10322000BAF1000F16D1701EA04213DDB8F1000FE5
:103230000ED10120AB4605EBDB71491001FB047197
:103240000090C8B22B4630220299FFF701FF12E02E
:103250004FF0010A0120AB4605EBDB71491001FB81
:1032600004710090C8B208F13001CAB22B4602992D
:10327000FFF7EEFE00BF601CC4B2B442C3DB05B072
:10328000BDE8F08FF8B506460F4615461C462CE003
:1032900004EBD4714910C1F18001B14202DA002679
:1032A0003819C7B2C4F14000B84204DA002006461B
:1032B0000746FFF767FE012000902A78234639462B
:1032C000304609E05C0200204E3D0008C241000883
:1032D000B24700082E3B0008FFF7BAFE204604EB79
:1032E000D07106EB6101CEB26D1C28787E2802DC1D
:1032F00028782028CCDAF8BD08B501211020FEF787
:1033000061F90820ADF8000048208DF803006946F7
:103310000648FDF79BFE1020ADF8000048208DF810
:10332000030069460148FDF791FE08BD0010014009
:1033300070477047704770477047754600F028F82F
:10334000AE4605006946534620F00700854618B092
:1033500020B5FDF773FBBDE820404FF000064FF0AD
:1033600000074FF000084FF0000B21F00701AC46BA
:10337000ACE8C009ACE8C009ACE8C009ACE8C009D9
:103380008D4670470446AFF300802046FCF717FFD8
:10339000004870475C06002021F00042A2F1605214
:1033A000B2F5801F01F0004328BFD2F17F6C0BD92A
:1033B0005FEA001C43EAC20242EB507018BF70473C
:1033C00028BF20F001007047B2F5801FBCBF18462F
:1033D00070474FEA410C1CF5001F02D2084600F06E
:1033E000F0BA70B500F0B4F800000089FFF7F6BF3E
:1033F0004FF00040A0F5800070470000DFF848C1A2
:1034000070B51CEA111E1EBF1CEA13159EEA0C0FB4
:1034100095EA0C0F00F06F8081EA030423EA4C1355
:103420004EEAD47E21EA4C1141F4801143F480131A
:10343000AE44A1FB024CA0FB0365AEF17F7E3619C2
:1034400055EB0C05A1FB034C4CF10003A0FB021C47
:1034500016EB0C06654153F10003094218BF46F014
:10346000010613F4007F0BD14FEA03314FEA053018
:10347000340341EA155140EA16506FF003020AE0A6
:103480004FEAC3214FEAC520F40241EA555140EA10
:1034900056506FF0020202EB2E4201EB025585EA14
:1034A000CE710AD05FEA440C18BF24F0004450F1FA
:1034B000000041F1000120EAD47040F2FE7C624538
:1034C00000D270BDA84214BF4FF080444FF040447A
:1034D000002E08BF0024BEF1806FA8BFA1F1C0413B
:1034E000BDE8704080F282804FF0000001F1C041E1
:1034F00001F0004170479EEA0C0F0CEA131518BF4B
:1035000095EA0C0F06D04FF0000081EA030E0EF092
:10351000004170BD00F01CF88900013E00F007B8C2
:1035200000F009B84FEA430C5FEA5C5C08D081EA1E
:10353000030100F05BB84FEA410C5FEA5C5CF6D136
:103540004FF00000014970470000FF070000F87FBE
:103550000EF1020E2EF0030E5EF8046B364205D417
:10356000012A43EB030515F5001F12D8012841EB92
:10357000010C1CF5001F0CD80ED14FEAD17C15F5BB
:10358000001F0CEB4C0C0CF1020C08BF4CEBD37C75
:1035900004E04FF0080C01E04FEAD37C0CEB4C0543
:1035A00026FA05F606F00706B6F1040C06D20EEB75
:1035B000860CBDE870404CF0010C6047DFE80CF071
:1035C000090B02024FF000414FF00000A1F500216D
:1035D00070BD19461046012851EB010418BFD4F5FF
:1035E000001484BF002001F0004170BD0808A0F560
:1035F00000114FEA3101704743004FEAD30C4FEA04
:103600003C0C43401FBF40070CF1605113F0FE4FCC
:1036100070471CF0006F03D100200CF00041704790
:103620000CF0004343EA507010B540EACC0000F0C3
:1036300082F900BF000000924FEA0001FFF7D6BFF9
:103640004FF000414FF00000A1F50021704700004D
:1036500090EA010F48BF81F0004100F1FA81421A5F
:103660003CBF801A89184FEAD0524FF07F4C1CEAB9
:10367000410FA2EBD15318BF9CEA026F00F03B80D0
:103680004FF0004C4CEA00204CEA012121FA03FCE7
:1036900010EB0C0C1ED202F1FF325FEA1C2040EB53
:1036A000C25038BF70471CF07F0F4FEA400C18BF64
:1036B000BCF17F4F38BF7047C3F12003994008BF6A
:1036C00020F00100BCF17F4F38BF7047A0F1C0402F
:1036D00000F077B94FEA3C00000A40EBC25028BF27
:1036E0001CF0FF0F4FEA400CE6D018BFBCF17F4F33
:1036F00038BF7047EAE79CEA026F05D010EA5C0F1A
:1037000008BF00F00040704710B500F014F900BF8A
:1037100064FBBE3E401058BFC0F14040491058BF46
:10372000C1F140418142EFF30080704741000B0E30
:10373000D3F19E0208D950F400034FEA032323FA81
:1037400002F048BF4042704710B500F0F4F800BFE7
:1037500049922480002070476FF0004282EA2000E6
:1037600070470000C10DD1F19E0206DB4FEA002335
:1037700043F0004323FA02F07047004207D54FEAB6
:103780004001B1F1FE4F02D24FF00000704710B57A
:1037900000F0D1F849922480002070476FEA2000A1
:1037A00070470000B0FA80F310FA03F2C3F19D03F2
:1037B0000AD0D90501EB1220530638BF704700F13B
:1037C000010008BF20F001007047000050EA010C22
:1037D00000F113801CF5000F58BFBCF5000F01D499
:1037E0008842704707D710F5000F58BF11F5000F3A
:1037F00015D488427047894270471CF5000F04D5E4
:10380000BCF5000FF7D5814270474FF0807C1CEB70
:10381000400F38BF1CEB410F01D28142704710B5F9
:1038200000F089F8922449004FF000504FF0805189
:10383000FFF770BF4FF47F0C1CEAD0121EBF1CEACA
:10384000D11392EA0C0F93EA0C0F00F0478090EA34
:10385000010F48BF42F480724FF0004C4CEA002048
:103860004CEA012102EB0302A0FB0113A2F50002C6
:10387000002918BF43F001035B0028BF4FEA330360
:1038800042EB22425FEA132C4CEBC2502EBFBCEB42
:10389000436FB2F57C0F70474FEA036CBCF1004FE9
:1038A00008BF20F00100B2F57C0F38BF70470BD580
:1038B00082F0FF0212F5803FC8BF704700F1C040A0
:1038C000D8BF00F00040704700F5000C5FEA4C0CD8
:1038D00048BF7047B0F1C04000F073B890EA010FE4
:1038E0000CEAD11348BF42F48072624538BF634589
:1038F00004D280EA010000F00040704710B500F0EB
:103900001AF800BF8900013E00F007B800F009B8BE
:103910005FEA410C5FEA1C6C08D080EA010000F00D
:1039200050B85FEA400C5FEA1C6CF6D14FF00040E3
:10393000A0F5800070470EF1020E2EF0030E5EF827
:10394000044B244204D44FEA4102B2F17F4F11D814
:103950004FEA4003B3F17F4F0CD80ED14FEAD07C31
:10396000B2F17F4F0CEB4C0C0CF1020C08BF4CEB8E
:10397000D17C04E04FF0080C01E04FEAD17C0CEB65
:103980004C0324FA03F404F00704B4F1040C06D247
:103990000EEB840CBDE810404CF0010C6047DFE8F2
:1039A0000CF0070802024FF00040A0F5800010BDA7
:1039B0000846420018BFD2F1807288BF00F0004074
:1039C00010BDFF2141EAD050C005704751EA000CFC
:1039D00000F113801CF5000F58BFBCF5000F01D497
:1039E0008142704707D711F5000F58BF10F5000F3F
:1039F00015D481427047894270471CF5000F04D5E9
:103A0000BCF5000FF7D5884270474FF0807C1CEB67
:103A1000410F38BF1CEB400F01D28842704780EA4B
:103A2000010081EA000180EA0100FFF7F8BE80F0A2
:103A3000004090EA010F7FF512AE81F0004100F0E6
:103A400008B8000090EA010F48BF81F000413FF53F
:103A500006AE421A04D882F00042A0EB02001144E4
:103A60004FEAD0524FF07F4C1CEA410FA2EBD153EA
:103A700018BF9CEA026F4AD04FF0004C4CEA00207D
:103A80004CEA012121FA03FCB0EB0C0C0FD412F02C
:103A9000FE0F36D05FEA4C001DD5001240EBC2503D
:103AA00038BF70471CF03F0F18BF70470BE0A2F102
:103AB00001025FEA1C2040EBC25038BF70471CF087
:103AC0007F0F18BF7047C3F12003994014BF401EF9
:103AD00020F00100704780084FEA122308BF7047AA
:103AE000B0FA80FCA2EB0C02CCF1280C60FA0CF0CE
:103AF00093EA122F04BF00EBC25070474FEAC37025
:103B00007047130A5FEADC1008BF7047F6E79CEACB
:103B1000026F04D010EA5C0F08BF0020704710B598
:103B2000FFF709FF40DFF63E81F0004070470008D4
:103B3000003001C00000000007FC40022002180213
:103B400000020002001E0200018000700000001050
:103B500028902510221024902C90B59066BF2490B8
:103B6000299020D02210251028900010000000027B
:103B700000027E7E00420042FF7E004202420C4272
:103B8000F07E20422842267E20020002000008200B
:103B90000620407E318000017FE2400C4FF040085B
:103BA0007FE400001FE20001FFFE0000000002446D
:103BB000424424480848FF50007F214222E422501A
:103BC0002248FE44224C225222422042000000029F
:103BD000E802A802ABFEAAAAEAAAAAAABEAAAAAAB0
:103BE000EAAAAAAAABFEA802E802000200000200AC
:103BF0000A00727C12401240FFFF124812441278F1
:103C000002001FF000020001FFFE00000000008023
:103C1000010006001FFFE00002000C00F0001FFF83
:103C200011101110111011101010100000000000E0
:103C30000000006C006C00000000000000000000AC
:103C40000000000000000000000000000000000272
:103C50004002410241024102410241027FFE410213
:103C60004102410241024102400200020000010102
:103C70000E060018FFE00410080C00043F08213273
:103C800021012FFE4100C1204110010C0000000065
:103C90000000000000000000000000000000000024
:103CA00000000000000000000000000000000941CA
:103CB0004A592C6A08C6FF44084A2C714A0001017F
:103CC0000E02F1CC103010CC1F021001000008428F
:103CD0000841FFFE0880090100067FF84900493FBE
:103CE00049224FE249224922793F010000000000A9
:103CF00000001FF81110111011101110FFFE11110A
:103D00001111111111111FF90001000F0000000124
:103D100000067FF8400241024102410241025FFE7B
:103D2000410241024122411A4102400200000000CA
:103D30000FF80008FFF000100FF80108090832A87A
:103D4000EAA825FF2AA832A82108010800000000DF
:103D500000000000000000000000000000003F40E4
:103D60000000000000000000300040003000400073
:103D7000000009000BC03D000BC03D00090018C049
:103D800024407FE0224031800000180024C01B0046
:103D90000D803240018003801C4027401C8007407A
:103DA0000040100060000000000000000000000063
:103DB000000000001F8020404020000040202040E4
:103DC0001F8000000000090006001F800600090097
:103DD0000000040004003F80040004000000001004
:103DE0000060000000000000000004000400040067
:103DF000040004000000000000400000000000007B
:103E00000000002001C006003800400000001F80B4
:103E10002040204020401F800000000010403FC094
:103E200000400000000018C02140224024401840FB
:103E3000000010802040244024401B80000002002D
:103E40000D0011003FC0014000003C802440244090
:103E50002440238000001F802440244034400380FD
:103E600000003000200027C03800200000001B8028
:103E70002440244024401B8000001C0022C022401B
:103E800022401F80000000000000084000000000E9
:103E900000000000000004600000000000000000BE
:103EA00004000A00110020804040090009000900B8
:103EB00009000900000000004040208011000A00B5
:103EC00004001800200023402400180000001F8078
:103ED0002040274029401F400000004007C0390013
:103EE0000F0001C0004020403FC0244024401B8000
:103EF00000001F80204020402040308000002040F3
:103F00003FC0204020401F80000020403FC0244090
:103F10002E4030C0000020403FC024402E00300022
:103F200000000F001080204022403380020020401B
:103F30003FC0040004003FC02040204020403FC05C
:103F40002040204000000060202020203FC02000B2
:103F5000200020403FC024400B0030C020402040C3
:103F60003FC020400040004000C03FC03C0003C0B4
:103F70003C003FC0000020403FC00C4023003FC039
:103F800020001F802040204020401F800000204053
:103F90003FC024402400180000001F802140214021
:103FA00020E01FA0000020403FC02440260019C090
:103FB000004018C0244024402240318000003000DE
:103FC00020403FC020403000000020003F800040E3
:103FD00000403F80200020003E0001C00700380064
:103FE0002000380007C03C0007C038000000204017
:103FF00039C0060039C0204000002000384007C00A
:10400000384020000000304021C02640384020C009
:104010000000000000007FE0402040200000000081
:1040200070000C0003800040000000004020402091
:104030007FE00000000000002000400020000000A1
:104040000000001000100010001000100010000010
:104050000000400000000000000000000280054059
:10406000054003C0004020003FC0044004400380DE
:1040700000000000038004400440064000000000EF
:104080000380044024403FC00040000003800540FE
:10409000054003400000000004401FC024402440AD
:1040A0002000000002E0055005500650042020408A
:1040B0003FC00440040003C000400000044027C08B
:1040C00000400000000000100010041027E0000075
:1040D000000020403FC00140070004C004402040D1
:1040E00020403FC000400040000007C0040007C05F
:1040F000040003C00000044007C00440040003C0E3
:1041000000400000038004400440038000000410CD
:1041100007F00450044003800000000003800440C6
:10412000045007F00010044007C0024004000400DF
:104130000000000006400540054004C000000000EB
:1041400004001F800440004000000400078000407D
:10415000044007C000400400070004C001800600BE
:104160000400060001C0070001C006000000044072
:1041700006C0010006C0044000000410071004E05F
:104180000180060004000000044005C00640044011
:1041900000000000000004007BE040200000000060
:1041A00000000000FFF000000000000040207BE065
:1041B00004000000000040008000400020002000BB
:1041C00040000000000000000000000000000000AF
:1041D00000000000000000001FCC000C00000000E8
:1041E000000000000800300060000800300060009F
:1041F0000000022003FC1E20022003FC1E200220DF
:10420000000000000E1811043FFF10840C7800001D
:1042100000000F0010840F3800C007781884007861
:10422000000000780F8410C411240E9800E400846C
:104230000008080068007000000000000000000096
:10424000000000000000000007E0181820044002F1
:104250000000000040022004181807E000000000E1
:1042600000000240024001800FF001800240024045
:1042700000000080008000800FF800800080008037
:1042800000000001000D000E000000000000000012
:10429000000000000080008000800080008000801E
:1042A00000800000000C000C000000000000000076
:1042B00000000000000600180060018006001800E1
:1042C0002000000007F0080810041004080807F098
:1042D00000000000080408041FFC000400040000A3
:1042E000000000000E0C10141024104411840E0C59
:1042F000000000000C1810041104110412880C7046
:104300000000000000E00320042408241FFC002417
:10431000000000001F981084110411041088107010
:104320000000000007F008881104110418880070CC
:10433000000000001C00100010FC13001C00100006
:10434000000000000E3811441084108411440E380F
:10435000000000000700088C10441044088807F093
:104360000000000000000000030C030C000000002F
:104370000000000000000001010600000000000035
:104380000000000000800140022004100808100412
:10439000000002200220022002200220022002202F
:1043A00000000000100408080410022001400080F2
:1043B000000000000E001200100C106C10800F00A6
:1043C000000003E00C1813E4142417C4082807D0D5
:1043D00000000004003C03C41C40074000E4001C33
:1043E000000410041FFC1104110411040E88007055
:1043F000000003E00C1810041004100410081C1036
:10440000000010041FFC100410041004080807F03A
:10441000000010041FFC1104110417C41004081834
:10442000000010041FFC1104110017C01000080048
:10443000000003E00C181004100410441C78004025
:10444000000010041FFC10840080008010841FFCFA
:1044500010040000100410041FFC100410040000DD
:10446000000000030001100110011FFE10001000E9
:10447000000010041FFC110403801464181C1004B5
:10448000000010041FFC1004000400040004000CD1
:10449000000010041FFC1F0000FC1F001FFC100484
:1044A000000010041FFC0C04030000E010181FFCA7
:1044B000100007F00808100410041004080807F0A2
:1044C000000010041FFC10841080108010800F006A
:1044D000000007F0081810241024101C080A07F226
:1044E000000010041FFC1104110011C011300E0C4B
:1044F000000400000E1C11041084108410441C38A9
:1045000000001800100010041FFC10041000180018
:10451000000010001FF810040004000410041FF82D
:10452000100010001E0011E0001C007013801C0021
:1045300010001FC0103C00E01F0000E0103C1FC036
:1045400000001004180C163401C001C01634180CF9
:10455000100410001C00130400FC13041C001000C5
:1045600000000804101C1064108413041C041018AC
:1045700000000000000000007FFE400240024002F8
:104580000000000030000C0003800060001C0003ED
:10459000000000004002400240027FFE00000000D8
:1045A000000000000000200040004000400020000B
:1045B00000000001000100010001000100010001F4
:1045C000000100004000400020000000000000004A
:1045D000000000000098012401440144014400FC53
:1045E000000410001FFC0088010401040088007012
:1045F000000000000070008801040104010400882C
:1046000000000000007000880104010411081FFC74
:104610000004000000F8014401440144014400C8C2
:1046200000000000010401040FFC1104110411003A
:104630001800000000D601290129012901C901063D
:10464000000010041FFC008401000100010400FCB4
:10465000000400000104190419FC00040004000017
:1046600000000000000300010101190119FE000013
:10467000000010041FFC0024004001B4010C0104E0
:1046800000000000100410041FFC000400040000DF
:104690000000010401FC0104010001FC010401000F
:1046A00000FC010401FC008401000100010400FC85
:1046B0000004000000F8010401040104010400F8F2
:1046C0000000010101FF0085010401040088007061
:1046D000000000000070008801040104010501FFD2
:1046E00000010104010401FC0084010401000180B7
:1046F0000000000000CC01240124012401240198C1
:10470000000000000100010007F80104010400009E
:104710000000010001F8000400040004010801FC8D
:104720000004010001800170000C00100160018094
:10473000010001F0010C003001C00030010C01F05B
:10474000010000000104018C00740170018C01045F
:104750000000010101810171000E0018016001805B
:10476000010000000184010C013401440184010CAA
:104770000000000000000000000001003EFC4002BC
:1047800040020000000000000000FFFF00000000E9
:1047900000000000400240023EFC0100000000005A
:1047A0000000000060008000800040004000200009
:1047B00020000000000000000000000000000000D9
:1047C00000000000000000000000000000000000E9
:1047D00000000000000000000000000000000000D9
:1047E00000000000000F80380FFE380F80380000F6
:1047F00000000000000000000000000000000000B9
:104800000100000600000C00003800003100000626
:1048100000000C0000380000300000000000000024
:10482000000061800067F807F98000618000618006
:104830000061800061800067F807F98000618000F6
:10484000000000000000000001C0E003E0F00630BE
:10485000080418081FFFFE040E080787F00381E014
:1048600000000000000001F000060C00040408062F
:104870000C7001F9C0000E00003BE000EC180708C6
:1048800008040C180003E00000000001E00007F03D
:1048900003F818041C0804170807E1D003C0E0005F
:1048A00023B0003C080020080000100000000000B9
:1048B000000100003100003200001C000000000078
:1048C00000000000000000000000000000000000E8
:1048D00000000000000000000000000000000000D8
:1048E00000007F0001FFC00780F00C0018100004DA
:1048F0002000020000000000002000021000040C54
:1049000000180780F001FFC0007F000000000000D9
:104910000000000000000000000000000000420055
:10492000006600006600003C0000180003FFC000A5
:104930001800003C00006600006600004200000015
:10494000000008000008000008000008000008003F
:1049500001FFC00008000008000008000008000077
:1049600008000000000000010000310000320000DB
:104970001C0000000000000000000000000000001B
:104980000000000000000000000008000008000017
:1049900008000008000008000008000008000008E7
:1049A00000000800000800000000000000000000F7
:1049B000000038000038000038000000000000004F
:1049C00000000000000000000000000000000000E7
:1049D0000000000600001C000070000180000E00B6
:1049E00000380000C0000700001C0000300000007C
:1049F0000000000000007F8001FFE00380700600DF
:104A00001804000804000806001803807001FFE085
:104A1000007F80000000000000000000010008018D
:104A2000000801000803FFF807FFF8000008000075
:104A30000800000800000000000000000001C0386D
:104A400002C058040098040118040218040418064F
:104A50001C1803F81801E0F8000000000000000036
:104A60000001C0E003C0F0040008040808040808BE
:104A700006180803F41801E7F00001E00000000048
:104A80000000000000000300000D000011000061A4
:104A90000000810803010807FFF80FFFF800010874
:104AA0000001080000000000000000E007FCD00644
:104AB0000808061008061008061008061838060F21
:104AC000F00607C0000000000000000000003F806A
:104AD00001FFE003843002081804100804100804E1
:104AE0001008071810030FF00007C00000000000B6
:104AF0000000000003C0000700000600000600F8E8
:104B00000607F806180006E000070000060000008F
:104B1000000000000001E1E003F7F0063410041883
:104B200008041808040C08040C0806161803F3F00F
:104B300001C1E000000000000000F80003FC3003A9
:104B400006380402080402080402080404100308DA
:104B5000F001FFC0007F0000000000000000000026
:104B600000000000000000000000703800703800F5
:104B7000703800000000000000000000000000008D
:104B80000000000000000000000000000000301ADB
:104B900000301C00000000000000000000000000C9
:104BA00000000000000000000008000014000022C7
:104BB000000041000080800100400200200400103D
:104BC0000800080000000000000021000021000093
:104BD000210000210000210000210000210000210F
:104BE0000000210000210000000000000000000083
:104BF000080008040010020020010040008080002E
:104C00004100002200001400000800000000000025
:104C10000003C00004C000040000080038080F387A
:104C20000808380810000C300007E00003C000003E
:104C30000000000000003F8000FFE0038070020FD2
:104C40001006708804C088048308047F8802C0901E
:104C500003012000FE400000080000180001F800D9
:104C60003E0801C20007020007E20000FE00001F2C
:104C7000C80001F800003800000804000807FFF829
:104C800007FFF804080804080804080804080806D0
:104C9000180803F41801E7F00001E000000000002C
:104CA00000003F8001FFE00380700200180400084C
:104CB0000400080400080400100600200780C0005B
:104CC000000004000807FFF807FFF80400080400CC
:104CD0000804000804001802001003807001FFE0BF
:104CE000007F8000000004000807FFF807FFF804B9
:104CF0000808040808040808040808043E0804001A
:104D00000806001801006000000004000807FFF812
:104D100007FFF80408080408000408000408000459
:104D20003E000600000600000180000000000000B8
:104D300000003F8001FFE0038070060018040008B7
:104D40000402080402080203F00783F000020000D6
:104D5000020004000807FFF807FFF804080800082D
:104D60000000080000080000080004080807FFF819
:104D700007FFF80400080000000000000400080419
:104D8000000804000807FFF807FFF8040008040003
:104D900008040008000000000000000000000006F9
:104DA00000000700000104000104000104000307E3
:104DB000FFFE07FFFC0400000400000400000400E4
:104DC0000807FFF807FFF8040C08001800003E0071
:104DD00004C7800503C80600F80400380400180062
:104DE000000804000807FFF807FFF80400080000A7
:104DF0000800000800000800000800000800001873
:104E000000006000000004000807FFF807800807A2
:104E1000FC00007FC00003F80007C0007800078096
:104E20000807FFF807FFF804000804000807FFF868
:104E300007000803C00000E000003800001E00006A
:104E400007000001C00400F007FFF80400000000A4
:104E500000007F8001FFE003807006001804000856
:104E600004000806001803003001FFE0007F800006
:104E7000000004000807FFF807FFF8040408040412
:104E800000040400040400040400060C0003F800FD
:104E900001F000000000000000007F8001FFE0033F
:104EA00080700600880400880400C806003C0300E7
:104EB0003E01FFE6007F8400000004000807FFF8C1
:104EC00007FFF8040808040800040C00040F00049D
:104ED0000BC00610F003F03801E0080000080000E5
:104EE0000001E0F803F03006301004180804180838
:104EF000040C08040C080206180207F00781E00001
:104F0000000001800006000004000004000004000E
:104F10000807FFF807FFF804000804000004000079
:104F200006000001800004000007FFE007FFF00416
:104F30000018000008000008000008000008000039
:104F40000804001007FFE004000004000006000051
:104F500007E00007FE00041FE00001F80000380031
:104F600001E0043E0007C000060000040000040049
:104F70000007E00007FFC0041FF80007C007F800A3
:104F800007FF80043FF80007C004F8000700000492
:104F9000000000000004000806001807C07805F1B2
:104FA000C8003E00001F800463E80780F806001870
:104FB000040008000000040000060000078000074D
:104FC000E008047C08001FF80007F800180804E057
:104FD00008070000060000040000000000010008AF
:104FE0000600380400F80403E8040F08047C0805F0
:104FF000F00807C008070018040060000000000067
:10500000000000000000000000000000003FFFFE64
:1050100020000220000220000220000220000200E6
:10502000000000000000000008000007000000C0B1
:10503000000038000006000001C000003000000E33
:10504000000001000000000000000000200002201D
:1050500000022000022000022000023FFFFE0000AC
:105060000000000000000000000000000000000040
:105070000000000800001000003000002000003098
:105080000000100000080000000000000000000008
:10509000010000010000010000010000010000010A
:1050A00000000100000100000100000100000100FB
:1050B00000010000000000000000002000002000AF
:1050C00000100000100000000000000000000000C0
:1050D0000000000000000000000000F00019F800CF
:1050E0001B18002208002608002408002410003F96
:1050F000F8001FF80000080000180000000400007D
:1051000007FFF80FFFF00018180010080020080033
:105110002008003018001FF0000FC0000000000041
:10512000000007C0001FF000183000200800200811
:10513000002008003C08001C100000600000000077
:1051400000000000000007C0001FF0003818002019
:105150000800200800200804101007FFF80FFFF0D7
:105160000000100000000000000000000007C00068
:105170001FF000123000221800220800220800321E
:1051800008001E10000E200000000000000020009B
:1051900000200800200801FFF803FFF8062008049B
:1051A0002008042008072000030000000000000081
:1051B0000000000E000E6E001FF30031B10020B1A0
:1051C0000020B1003191001F13002E1E00200E00A0
:1051D000300000000004000807FFF80FFFF800107F
:1051E00008002000002000002008003FF8001FF801
:1051F000000008000000000000000000002008007F
:105200002008002008063FF8063FF80000080000CC
:10521000080000080000000000000000000000007E
:10522000000003000003002001002001002003060D
:105230003FFE063FFC0000000000000000000000F0
:105240000004000807FFF80FFFF8000188000300C2
:10525000002FC00038F800203800200800000800A7
:105260000000000000000000040008040008040022
:105270000807FFF80FFFF80000080000080000080A
:10528000000000000000002008003FF8003FF80088
:105290001008002000003FF8003FF8001008002030
:1052A00000003FF8003FF800000800000000200860
:1052B000003FF8003FF80010080010000020000038
:1052C0002008003FF8001FF8000008000000000060
:1052D000000007C0000FF000183000300800200860
:1052E000002008003008001830000FF00007C00050
:1052F0000000000000002001003FFF003FFF001001
:1053000011002009002008002008003038001FF09C
:10531000000FC00000000000000007C0001FF000E8
:105320003818002008002008002009001011001F74
:10533000FF003FFF000001000000002008002008DF
:10534000002008003FF8003FF8000808001008009F
:1053500020080020000030000030000000000000A5
:1053600000000000000C78001E180033080023081D
:105370000021080021880021980030F000386000EA
:10538000000000000000200000200000200000FFBE
:10539000F003FFF80020080020080020080000307B
:1053A000000000000000000000002000003FF000AE
:1053B0007FF8000018000008000008002010003FDF
:1053C000F8007FF000001000000000000000200046
:1053D000003000003C00003F800023F00000780017
:1053E0000070002380003C000030000020000020FE
:1053F00000003C00003FE00023F80000E000270030
:10540000003E00003FE00021F80001E0003E000007
:105410002000000000002008002008003838003E6E
:10542000680027800003C8002CF8003838002018D6
:1054300000200800000000000000200000300300F1
:105440003C01003F830023EC000070002380003CFF
:10545000000020000020000000000000000000000C
:105460000038080020380020F80023E8002F8800CA
:105470003E080038080020180000700000000000FE
:105480000000000000000000000000000000080014
:105490000014001FF7FC300006200002000000008E
:1054A00000000000000000000000000000000000FC
:1054B00000000000FFFFFF000000000000000000EF
:1054C000000000000000000000000000200002308A
:1054D00000061FF7FC001400000800000000000098
:1054E00000000000000000000000000000180000A4
:1054F0006000004000004000002000001000000894
:1055000000000400000400000C0000100000000077
:1055100030550008000000206C0000006C010008FD
:105520009C5500086C000020540C00008801000805
:10553000000000000000000000000000000000006B
:105540005802000000000000000000000000000001
:1055500000020000000200000002000064000000E1
:10556000000000000100000000A24A04000000004A
:105570000000000001020304060708090000000003
:1055800001020304010203040607080902040608D5
:0C5590000000000000000000000000000F
:0400000508000131BD
:00000001FF
