Component: ARM Compiler 5.05 update 1 (build 106) Tool: armlink [4d0efa]

==============================================================================

Section Cross References

    main.o(.text) refers to oled.o(.text) for OLED_ShowHz
    main.o(.text) refers to ffixu.o(x$fpl$ffixu) for __aeabi_f2uiz
    main.o(.text) refers to fflt_clz.o(x$fpl$ffltu) for __aeabi_ui2f
    main.o(.text) refers to faddsub_clz.o(x$fpl$frsb) for __aeabi_frsub
    main.o(.text) refers to fmul.o(x$fpl$fmul) for __aeabi_fmul
    main.o(.text) refers to ffix.o(x$fpl$ffix) for __aeabi_f2iz
    main.o(.text) refers to adc.o(.text) for Get_Adc
    main.o(.text) refers to f2d.o(x$fpl$f2d) for __aeabi_f2d
    main.o(.text) refers to dmul.o(x$fpl$dmul) for __aeabi_dmul
    main.o(.text) refers to d2f.o(x$fpl$d2f) for __aeabi_d2f
    main.o(.text) refers to stm32f10x_gpio.o(.text) for GPIO_ReadInputDataBit
    main.o(.text) refers to main.o(.data) for adcx
    main.o(.text) refers to main.o(.bss) for waveform
    main.o(.text) refers to fleqf.o(x$fpl$fleqf) for __aeabi_cfcmple
    main.o(.text) refers to frleqf.o(x$fpl$frleqf) for __aeabi_cfrcmple
    main.o(.text) refers to faddsub_clz.o(x$fpl$fsub) for __aeabi_fsub
    main.o(.text) refers to stm32f10x_tim.o(.text) for TIM_GetITStatus
    main.o(.text) refers to delay.o(.text) for delay_init
==============================================================================

Removing Unused input sections from the image.

    Removing core_cm3.o(.emb_text), (32 bytes).
    Removing stm32f10x_bkp.o(.text), (196 bytes).
    Removing stm32f10x_can.o(.text), (2544 bytes).
    Removing stm32f10x_cec.o(.text), (288 bytes).
    Removing stm32f10x_crc.o(.text), (72 bytes).
    Removing stm32f10x_dac.o(.text), (396 bytes).
    Removing stm32f10x_dbgmcu.o(.text), (48 bytes).
    Removing stm32f10x_dma.o(.text), (596 bytes).
    Removing stm32f10x_exti.o(.text), (284 bytes).
    Removing stm32f10x_flash.o(.text), (1468 bytes).
    Removing stm32f10x_fsmc.o(.text), (1548 bytes).
    Removing stm32f10x_i2c.o(.text), (1028 bytes).
    Removing stm32f10x_iwdg.o(.text), (64 bytes).
    Removing stm32f10x_pwr.o(.text), (204 bytes).
    Removing stm32f10x_rtc.o(.text), (328 bytes).
    Removing stm32f10x_sdio.o(.text), (468 bytes).
    Removing stm32f10x_spi.o(.text), (780 bytes).
    Removing stm32f10x_wwdg.o(.text), (136 bytes).
==============================================================================

Image Symbol Table

    Local Symbols

    Symbol Name                              Value     Ov Type        Size  Object(Section)

    ../clib/angel/boardlib.s                 0x00000000   Number         0  boardinit1.o ABSOLUTE
    ../clib/angel/boardlib.s                 0x00000000   Number         0  boardinit2.o ABSOLUTE
    ../clib/angel/boardlib.s                 0x00000000   Number         0  boardinit3.o ABSOLUTE
    ../clib/angel/boardlib.s                 0x00000000   Number         0  boardshut.o ABSOLUTE
    ../clib/angel/handlers.s                 0x00000000   Number         0  __scatter_zi.o ABSOLUTE
    ../clib/angel/handlers.s                 0x00000000   Number         0  __scatter_copy.o ABSOLUTE
    ../clib/angel/kernel.s                   0x00000000   Number         0  __rtentry2.o ABSOLUTE
    ../clib/angel/kernel.s                   0x00000000   Number         0  __rtentry4.o ABSOLUTE
    ../clib/angel/kernel.s                   0x00000000   Number         0  __rtentry.o ABSOLUTE
    ../clib/angel/kernel.s                   0x00000000   Number         0  rtexit.o ABSOLUTE
    ../clib/angel/kernel.s                   0x00000000   Number         0  rtexit2.o ABSOLUTE
    ../clib/angel/rt.s                       0x00000000   Number         0  rt_raise.o ABSOLUTE
    ../clib/angel/scatter.s                  0x00000000   Number         0  __scatter.o ABSOLUTE
    ../clib/angel/startup.s                  0x00000000   Number         0  __main.o ABSOLUTE
    ../clib/angel/sys.s                      0x00000000   Number         0  indicate_semi.o ABSOLUTE
    ../clib/angel/sys.s                      0x00000000   Number         0  sys_stackheap_outer.o ABSOLUTE
    ../clib/angel/sys.s                      0x00000000   Number         0  use_no_semi.o ABSOLUTE
    ../clib/angel/sys.s                      0x00000000   Number         0  use_no_semi_2.o ABSOLUTE
    ../clib/angel/sys.s                      0x00000000   Number         0  libspace.o ABSOLUTE
    ../clib/angel/sysapp.c                   0x00000000   Number         0  sys_wrch.o ABSOLUTE
    ../clib/angel/sysapp.c                   0x00000000   Number         0  sys_command.o ABSOLUTE
    ../clib/armsys.c                         0x00000000   Number         0  no_argv.o ABSOLUTE
    ../clib/armsys.c                         0x00000000   Number         0  argv_veneer.o ABSOLUTE
    ../clib/armsys.c                         0x00000000   Number         0  argv_veneer.o ABSOLUTE
    ../clib/armsys.c                         0x00000000   Number         0  _get_argv_nomalloc.o ABSOLUTE
    ../clib/heapalloc.c                      0x00000000   Number         0  hrguard.o ABSOLUTE
    ../clib/heapaux.c                        0x00000000   Number         0  heapauxi.o ABSOLUTE
    ../clib/libinit.s                        0x00000000   Number         0  libshutdown2.o ABSOLUTE
    ../clib/libinit.s                        0x00000000   Number         0  libshutdown.o ABSOLUTE
    ../clib/libinit.s                        0x00000000   Number         0  libinit.o ABSOLUTE
    ../clib/libinit.s                        0x00000000   Number         0  libinit2.o ABSOLUTE
    ../clib/signal.c                         0x00000000   Number         0  defsig_fpe_inner.o ABSOLUTE
    ../clib/signal.c                         0x00000000   Number         0  defsig_rtmem_formal.o ABSOLUTE
    ../clib/signal.c                         0x00000000   Number         0  defsig_rtmem_outer.o ABSOLUTE
    ../clib/signal.c                         0x00000000   Number         0  defsig_abrt_inner.o ABSOLUTE
    ../clib/signal.c                         0x00000000   Number         0  defsig_other.o ABSOLUTE
    ../clib/signal.c                         0x00000000   Number         0  defsig_segv_inner.o ABSOLUTE
    ../clib/signal.c                         0x00000000   Number         0  defsig_cppl_inner.o ABSOLUTE
    ../clib/signal.c                         0x00000000   Number         0  defsig_pvfn_inner.o ABSOLUTE
    ../clib/signal.c                         0x00000000   Number         0  defsig_stak_inner.o ABSOLUTE
    ../clib/signal.c                         0x00000000   Number         0  defsig_rtred_inner.o ABSOLUTE
    ../clib/signal.c                         0x00000000   Number         0  defsig_exit.o ABSOLUTE
    ../clib/signal.c                         0x00000000   Number         0  defsig_general.o ABSOLUTE
    ../clib/signal.c                         0x00000000   Number         0  defsig_rtmem_inner.o ABSOLUTE
    ../clib/signal.c                         0x00000000   Number         0  __raise.o ABSOLUTE
    ../clib/signal.s                         0x00000000   Number         0  defsig.o ABSOLUTE
    ../clib/stdlib.c                         0x00000000   Number         0  exit.o ABSOLUTE
    ../fplib/d2f.s                           0x00000000   Number         0  d2f.o ABSOLUTE
    ../fplib/dmul.s                          0x00000000   Number         0  dmul.o ABSOLUTE
    ../fplib/dnaninf.s                       0x00000000   Number         0  dnaninf.o ABSOLUTE
    ../fplib/dretinf.s                       0x00000000   Number         0  dretinf.o ABSOLUTE
    ../fplib/f2d.s                           0x00000000   Number         0  f2d.o ABSOLUTE
    ../fplib/faddsub.s                       0x00000000   Number         0  faddsub_clz.o ABSOLUTE
    ../fplib/fcmpi.s                         0x00000000   Number         0  fcmpi.o ABSOLUTE
    ../fplib/ffix.s                          0x00000000   Number         0  ffix.o ABSOLUTE
    ../fplib/ffixu.s                         0x00000000   Number         0  ffixu.o ABSOLUTE
    ../fplib/fflt.s                          0x00000000   Number         0  fflt_clz.o ABSOLUTE
    ../fplib/fleqf.s                         0x00000000   Number         0  fleqf.o ABSOLUTE
    ../fplib/fmul.s                          0x00000000   Number         0  fmul.o ABSOLUTE
    ../fplib/fnaninf.s                       0x00000000   Number         0  fnaninf.o ABSOLUTE
    ../fplib/fpinit.s                        0x00000000   Number         0  fpinit.o ABSOLUTE
    ../fplib/fretinf.s                       0x00000000   Number         0  fretinf.o ABSOLUTE
    ../fplib/frleqf.s                        0x00000000   Number         0  frleqf.o ABSOLUTE
    ../fplib/usenofp.s                       0x00000000   Number         0  usenofp.o ABSOLUTE
    ..\CORE\core_cm3.c                       0x00000000   Number         0  core_cm3.o ABSOLUTE
    ..\CORE\startup_stm32f10x_hd.s           0x00000000   Number         0  startup_stm32f10x_hd.o ABSOLUTE
    ..\STM32F10x_FWLib\src\misc.c            0x00000000   Number         0  misc.o ABSOLUTE
    ..\STM32F10x_FWLib\src\stm32f10x_adc.c   0x00000000   Number         0  stm32f10x_adc.o ABSOLUTE
    ..\STM32F10x_FWLib\src\stm32f10x_bkp.c   0x00000000   Number         0  stm32f10x_bkp.o ABSOLUTE
    ..\STM32F10x_FWLib\src\stm32f10x_can.c   0x00000000   Number         0  stm32f10x_can.o ABSOLUTE
    ..\STM32F10x_FWLib\src\stm32f10x_cec.c   0x00000000   Number         0  stm32f10x_cec.o ABSOLUTE
    ..\STM32F10x_FWLib\src\stm32f10x_crc.c   0x00000000   Number         0  stm32f10x_crc.o ABSOLUTE
    ..\STM32F10x_FWLib\src\stm32f10x_dac.c   0x00000000   Number         0  stm32f10x_dac.o ABSOLUTE
    ..\STM32F10x_FWLib\src\stm32f10x_dbgmcu.c 0x00000000   Number         0  stm32f10x_dbgmcu.o ABSOLUTE
    ..\STM32F10x_FWLib\src\stm32f10x_dma.c   0x00000000   Number         0  stm32f10x_dma.o ABSOLUTE
    ..\STM32F10x_FWLib\src\stm32f10x_exti.c  0x00000000   Number         0  stm32f10x_exti.o ABSOLUTE
    ..\STM32F10x_FWLib\src\stm32f10x_flash.c 0x00000000   Number         0  stm32f10x_flash.o ABSOLUTE
    ..\STM32F10x_FWLib\src\stm32f10x_fsmc.c  0x00000000   Number         0  stm32f10x_fsmc.o ABSOLUTE
    ..\STM32F10x_FWLib\src\stm32f10x_gpio.c  0x00000000   Number         0  stm32f10x_gpio.o ABSOLUTE
    ..\STM32F10x_FWLib\src\stm32f10x_i2c.c   0x00000000   Number         0  stm32f10x_i2c.o ABSOLUTE
    ..\STM32F10x_FWLib\src\stm32f10x_iwdg.c  0x00000000   Number         0  stm32f10x_iwdg.o ABSOLUTE
    ..\STM32F10x_FWLib\src\stm32f10x_pwr.c   0x00000000   Number         0  stm32f10x_pwr.o ABSOLUTE
    ..\STM32F10x_FWLib\src\stm32f10x_rcc.c   0x00000000   Number         0  stm32f10x_rcc.o ABSOLUTE
    ..\STM32F10x_FWLib\src\stm32f10x_rtc.c   0x00000000   Number         0  stm32f10x_rtc.o ABSOLUTE
    ..\STM32F10x_FWLib\src\stm32f10x_sdio.c  0x00000000   Number         0  stm32f10x_sdio.o ABSOLUTE
    ..\STM32F10x_FWLib\src\stm32f10x_spi.c   0x00000000   Number         0  stm32f10x_spi.o ABSOLUTE
    ..\STM32F10x_FWLib\src\stm32f10x_tim.c   0x00000000   Number         0  stm32f10x_tim.o ABSOLUTE
    ..\STM32F10x_FWLib\src\stm32f10x_usart.c 0x00000000   Number         0  stm32f10x_usart.o ABSOLUTE
    ..\STM32F10x_FWLib\src\stm32f10x_wwdg.c  0x00000000   Number         0  stm32f10x_wwdg.o ABSOLUTE
    ..\SYSTEM\delay\delay.c                  0x00000000   Number         0  delay.o ABSOLUTE
    ..\SYSTEM\sys\sys.c                      0x00000000   Number         0  sys.o ABSOLUTE
    ..\SYSTEM\usart\usart.c                  0x00000000   Number         0  usart.o ABSOLUTE
    ..\\CORE\\core_cm3.c                     0x00000000   Number         0  core_cm3.o ABSOLUTE
    ..\\SYSTEM\\sys\\sys.c                   0x00000000   Number         0  sys.o ABSOLUTE
    ..\hardware\ADC\adc.c                    0x00000000   Number         0  adc.o ABSOLUTE
    ..\hardware\GPIO_INIT\GPIO_INIT.c        0x00000000   Number         0  gpio_init.o ABSOLUTE
    ..\hardware\OLED\OLED.c                  0x00000000   Number         0  oled.o ABSOLUTE
    ..\hardware\TIMER\timer.c                0x00000000   Number         0  timer.o ABSOLUTE
    ..\hardware\myiic\myiic.c                0x00000000   Number         0  myiic.o ABSOLUTE
    dc.s                                     0x00000000   Number         0  dc.o ABSOLUTE
    main.c                                   0x00000000   Number         0  main.o ABSOLUTE
    stm32f10x_it.c                           0x00000000   Number         0  stm32f10x_it.o ABSOLUTE
    system_stm32f10x.c                       0x00000000   Number         0  system_stm32f10x.o ABSOLUTE
    RESET                                    0x08000000   Section      304  startup_stm32f10x_hd.o(RESET)
    !!!main                                  0x08000130   Section        8  __main.o(!!!main)
    !!!scatter                               0x08000138   Section       52  __scatter.o(!!!scatter)
    !!handler_copy                           0x0800016c   Section       26  __scatter_copy.o(!!handler_copy)
    !!handler_zi                             0x08000188   Section       28  __scatter_zi.o(!!handler_zi)
    .ARM.Collect$$libinit$$00000000          0x080001a4   Section        2  libinit.o(.ARM.Collect$$libinit$$00000000)
    .ARM.Collect$$libinit$$00000002          0x080001a6   Section        0  libinit2.o(.ARM.Collect$$libinit$$00000002)
    .ARM.Collect$$libinit$$00000004          0x080001a6   Section        0  libinit2.o(.ARM.Collect$$libinit$$00000004)
    .ARM.Collect$$libinit$$0000000A          0x080001a6   Section        0  libinit2.o(.ARM.Collect$$libinit$$0000000A)
    .ARM.Collect$$libinit$$0000000C          0x080001a6   Section        0  libinit2.o(.ARM.Collect$$libinit$$0000000C)
    .ARM.Collect$$libinit$$0000000E          0x080001a6   Section        0  libinit2.o(.ARM.Collect$$libinit$$0000000E)
    .ARM.Collect$$libinit$$00000011          0x080001a6   Section        0  libinit2.o(.ARM.Collect$$libinit$$00000011)
    .ARM.Collect$$libinit$$00000013          0x080001a6   Section        0  libinit2.o(.ARM.Collect$$libinit$$00000013)
    .ARM.Collect$$libinit$$00000015          0x080001a6   Section        0  libinit2.o(.ARM.Collect$$libinit$$00000015)
    .ARM.Collect$$libinit$$00000017          0x080001a6   Section        0  libinit2.o(.ARM.Collect$$libinit$$00000017)
    .ARM.Collect$$libinit$$00000019          0x080001a6   Section        0  libinit2.o(.ARM.Collect$$libinit$$00000019)
    .ARM.Collect$$libinit$$0000001B          0x080001a6   Section        0  libinit2.o(.ARM.Collect$$libinit$$0000001B)
    .ARM.Collect$$libinit$$0000001D          0x080001a6   Section        0  libinit2.o(.ARM.Collect$$libinit$$0000001D)
    .ARM.Collect$$libinit$$0000001F          0x080001a6   Section        0  libinit2.o(.ARM.Collect$$libinit$$0000001F)
    .ARM.Collect$$libinit$$00000021          0x080001a6   Section        0  libinit2.o(.ARM.Collect$$libinit$$00000021)
    .ARM.Collect$$libinit$$00000023          0x080001a6   Section        0  libinit2.o(.ARM.Collect$$libinit$$00000023)
    .ARM.Collect$$libinit$$00000025          0x080001a6   Section        0  libinit2.o(.ARM.Collect$$libinit$$00000025)
    .ARM.Collect$$libinit$$0000002C          0x080001a6   Section        0  libinit2.o(.ARM.Collect$$libinit$$0000002C)
    .ARM.Collect$$libinit$$0000002E          0x080001a6   Section        0  libinit2.o(.ARM.Collect$$libinit$$0000002E)
    .ARM.Collect$$libinit$$00000030          0x080001a6   Section        0  libinit2.o(.ARM.Collect$$libinit$$00000030)
    .ARM.Collect$$libinit$$00000032          0x080001a6   Section        0  libinit2.o(.ARM.Collect$$libinit$$00000032)
    .ARM.Collect$$libinit$$00000033          0x080001a6   Section        2  libinit2.o(.ARM.Collect$$libinit$$00000033)
    .ARM.Collect$$libshutdown$$00000000      0x080001a8   Section        2  libshutdown.o(.ARM.Collect$$libshutdown$$00000000)
    .ARM.Collect$$libshutdown$$00000003      0x080001aa   Section        0  libshutdown2.o(.ARM.Collect$$libshutdown$$00000003)
    .ARM.Collect$$libshutdown$$00000006      0x080001aa   Section        0  libshutdown2.o(.ARM.Collect$$libshutdown$$00000006)
    .ARM.Collect$$libshutdown$$00000009      0x080001aa   Section        0  libshutdown2.o(.ARM.Collect$$libshutdown$$00000009)
    .ARM.Collect$$libshutdown$$0000000B      0x080001aa   Section        0  libshutdown2.o(.ARM.Collect$$libshutdown$$0000000B)
    .ARM.Collect$$libshutdown$$0000000E      0x080001aa   Section        0  libshutdown2.o(.ARM.Collect$$libshutdown$$0000000E)
    .ARM.Collect$$libshutdown$$0000000F      0x080001aa   Section        2  libshutdown2.o(.ARM.Collect$$libshutdown$$0000000F)
    .ARM.Collect$$rtentry$$00000000          0x080001ac   Section        0  __rtentry.o(.ARM.Collect$$rtentry$$00000000)
    .ARM.Collect$$rtentry$$00000002          0x080001ac   Section        0  __rtentry2.o(.ARM.Collect$$rtentry$$00000002)
    .ARM.Collect$$rtentry$$00000004          0x080001ac   Section        6  __rtentry4.o(.ARM.Collect$$rtentry$$00000004)
    .ARM.Collect$$rtentry$$00000009          0x080001b2   Section        0  __rtentry2.o(.ARM.Collect$$rtentry$$00000009)
    .ARM.Collect$$rtentry$$0000000A          0x080001b2   Section        4  __rtentry2.o(.ARM.Collect$$rtentry$$0000000A)
    .ARM.Collect$$rtentry$$0000000C          0x080001b6   Section        0  __rtentry2.o(.ARM.Collect$$rtentry$$0000000C)
    .ARM.Collect$$rtentry$$0000000D          0x080001b6   Section        8  __rtentry2.o(.ARM.Collect$$rtentry$$0000000D)
    .ARM.Collect$$rtexit$$00000000           0x080001be   Section        2  rtexit.o(.ARM.Collect$$rtexit$$00000000)
    .ARM.Collect$$rtexit$$00000002           0x080001c0   Section        0  rtexit2.o(.ARM.Collect$$rtexit$$00000002)
    .ARM.Collect$$rtexit$$00000003           0x080001c0   Section        4  rtexit2.o(.ARM.Collect$$rtexit$$00000003)
    .ARM.Collect$$rtexit$$00000004           0x080001c4   Section        6  rtexit2.o(.ARM.Collect$$rtexit$$00000004)
    .text                                    0x080001cc   Section        0  main.o(.text)
    .text                                    0x08000824   Section        0  stm32f10x_it.o(.text)
    .text                                    0x08000840   Section        0  system_stm32f10x.o(.text)
    SetSysClockTo72                          0x08000841   Thumb Code   214  system_stm32f10x.o(.text)
    SetSysClock                              0x08000917   Thumb Code     8  system_stm32f10x.o(.text)
    .text                                    0x08000a20   Section       64  startup_stm32f10x_hd.o(.text)
    .text                                    0x08000a60   Section        0  misc.o(.text)
    .text                                    0x08000b3c   Section        0  stm32f10x_adc.o(.text)
    .text                                    0x08000f8c   Section        0  stm32f10x_gpio.o(.text)
    .text                                    0x080012e8   Section        0  stm32f10x_rcc.o(.text)
    .text                                    0x0800168c   Section        0  stm32f10x_tim.o(.text)
    TI4_Config                               0x08001b33   Thumb Code   130  stm32f10x_tim.o(.text)
    TI3_Config                               0x08001bc7   Thumb Code   122  stm32f10x_tim.o(.text)
    TI2_Config                               0x08001c5b   Thumb Code   130  stm32f10x_tim.o(.text)
    TI1_Config                               0x08001cef   Thumb Code   108  stm32f10x_tim.o(.text)
    .text                                    0x080024a8   Section        0  stm32f10x_usart.o(.text)
    .text                                    0x080028b0   Section        0  delay.o(.text)
    .text                                    0x08002984   Section        0  usart.o(.text)
    .text                                    0x08002ac4   Section        0  adc.o(.text)
    .text                                    0x08002bac   Section        0  timer.o(.text)
    .text                                    0x08002c0c   Section        0  myiic.o(.text)
    .text                                    0x08002e24   Section        0  oled.o(.text)
    .text                                    0x080032f8   Section        0  gpio_init.o(.text)
    .text                                    0x08003330   Section        2  use_no_semi_2.o(.text)
    .text                                    0x08003332   Section        0  heapauxi.o(.text)
    .text                                    0x08003338   Section        2  use_no_semi.o(.text)
    .text                                    0x0800333a   Section       74  sys_stackheap_outer.o(.text)
    .text                                    0x08003384   Section        0  exit.o(.text)
    .text                                    0x08003390   Section        8  libspace.o(.text)
    x$fpl$d2f                                0x08003398   Section       98  d2f.o(x$fpl$d2f)
    x$fpl$dmul                               0x080033fc   Section      340  dmul.o(x$fpl$dmul)
    x$fpl$dnaninf                            0x08003550   Section      156  dnaninf.o(x$fpl$dnaninf)
    x$fpl$dretinf                            0x080035ec   Section       12  dretinf.o(x$fpl$dretinf)
    x$fpl$f2d                                0x080035f8   Section       86  f2d.o(x$fpl$f2d)
    x$fpl$fadd                               0x08003650   Section      196  faddsub_clz.o(x$fpl$fadd)
    _fadd1                                   0x0800365f   Thumb Code     0  faddsub_clz.o(x$fpl$fadd)
    x$fpl$fcmpinf                            0x08003714   Section       24  fcmpi.o(x$fpl$fcmpinf)
    x$fpl$ffix                               0x0800372c   Section       54  ffix.o(x$fpl$ffix)
    x$fpl$ffixu                              0x08003764   Section       62  ffixu.o(x$fpl$ffixu)
    x$fpl$ffltu                              0x080037a4   Section       38  fflt_clz.o(x$fpl$ffltu)
    x$fpl$fleqf                              0x080037cc   Section      104  fleqf.o(x$fpl$fleqf)
    x$fpl$fmul                               0x08003834   Section      258  fmul.o(x$fpl$fmul)
    x$fpl$fnaninf                            0x08003936   Section      140  fnaninf.o(x$fpl$fnaninf)
    x$fpl$fretinf                            0x080039c2   Section       10  fretinf.o(x$fpl$fretinf)
    x$fpl$frleqf                             0x080039cc   Section       98  frleqf.o(x$fpl$frleqf)
    x$fpl$frsb                               0x08003a2e   Section       20  faddsub_clz.o(x$fpl$frsb)
    x$fpl$fsub                               0x08003a44   Section      234  faddsub_clz.o(x$fpl$fsub)
    _fsub1                                   0x08003a53   Thumb Code     0  faddsub_clz.o(x$fpl$fsub)
    .constdata                               0x08003b2e   Section     6624  oled.o(.constdata)
    x$fpl$usenofp                            0x08003b2e   Section        0  usenofp.o(x$fpl$usenofp)
    .data                                    0x20000000   Section       56  main.o(.data)
    key1_state                               0x20000036   Data           1  main.o(.data)
    waveSample_times                         0x20000037   Data           1  main.o(.data)
    .data                                    0x20000038   Section       20  system_stm32f10x.o(.data)
    .data                                    0x2000004c   Section       20  stm32f10x_rcc.o(.data)
    APBAHBPrescTable                         0x2000004c   Data          16  stm32f10x_rcc.o(.data)
    ADCPrescTable                            0x2000005c   Data           4  stm32f10x_rcc.o(.data)
    .data                                    0x20000060   Section        4  delay.o(.data)
    fac_us                                   0x20000060   Data           1  delay.o(.data)
    fac_ms                                   0x20000062   Data           2  delay.o(.data)
    .data                                    0x20000064   Section        6  usart.o(.data)
    .bss                                     0x2000006c   Section      296  main.o(.bss)
    .bss                                     0x20000194   Section      200  usart.o(.bss)
    .bss                                     0x2000025c   Section     1024  oled.o(.bss)
    .bss                                     0x2000065c   Section       96  libspace.o(.bss)
    HEAP                                     0x200006c0   Section      512  startup_stm32f10x_hd.o(HEAP)
    Heap_Mem                                 0x200006c0   Data         512  startup_stm32f10x_hd.o(HEAP)
    STACK                                    0x200008c0   Section     1024  startup_stm32f10x_hd.o(STACK)
    Stack_Mem                                0x200008c0   Data        1024  startup_stm32f10x_hd.o(STACK)
    __initial_sp                             0x20000cc0   Data           0  startup_stm32f10x_hd.o(STACK)

    Global Symbols

    Symbol Name                              Value     Ov Type        Size  Object(Section)

    BuildAttributes$$THM_ISAv4$P$D$K$B$S$PE$A:L22UL41UL21$X:L11$S22US41US21$IEEE1$IW$USESV6$~STKCKD$USESV7$~SHL$OSPACE$ROPI$EBA8$UX$STANDARDLIB$REQ8$PRES8$EABIv2 0x00000000   Number         0  anon$$obj.o ABSOLUTE
    __ARM_use_no_argv                        0x00000000   Number         0  main.o ABSOLUTE
    __ARM_exceptions_init                     - Undefined Weak Reference
    __alloca_initialize                       - Undefined Weak Reference
    __arm_preinit_                            - Undefined Weak Reference
    __cpp_initialize__aeabi_                  - Undefined Weak Reference
    __cxa_finalize                            - Undefined Weak Reference
    __rt_locale                               - Undefined Weak Reference
    __sigvec_lookup                           - Undefined Weak Reference
    _atexit_init                              - Undefined Weak Reference
    _call_atexit_fns                          - Undefined Weak Reference
    _clock_init                               - Undefined Weak Reference
    _fp_trap_init                             - Undefined Weak Reference
    _fp_trap_shutdown                         - Undefined Weak Reference
    _get_lc_collate                           - Undefined Weak Reference
    _get_lc_ctype                             - Undefined Weak Reference
    _get_lc_monetary                          - Undefined Weak Reference
    _get_lc_numeric                           - Undefined Weak Reference
    _get_lc_time                              - Undefined Weak Reference
    _getenv_init                              - Undefined Weak Reference
    _handle_redirection                       - Undefined Weak Reference
    _init_alloc                               - Undefined Weak Reference
    _init_user_alloc                          - Undefined Weak Reference
    _initio                                   - Undefined Weak Reference
    _rand_init                                - Undefined Weak Reference
    _signal_finish                            - Undefined Weak Reference
    _signal_init                              - Undefined Weak Reference
    _terminate_alloc                          - Undefined Weak Reference
    _terminate_user_alloc                     - Undefined Weak Reference
    _terminateio                              - Undefined Weak Reference
    __Vectors_Size                           0x00000130   Number         0  startup_stm32f10x_hd.o ABSOLUTE
    __Vectors                                0x08000000   Data           4  startup_stm32f10x_hd.o(RESET)
    __Vectors_End                            0x08000130   Data           0  startup_stm32f10x_hd.o(RESET)
    __main                                   0x08000131   Thumb Code     8  __main.o(!!!main)
    __scatterload                            0x08000139   Thumb Code     0  __scatter.o(!!!scatter)
    __scatterload_rt2                        0x08000139   Thumb Code    44  __scatter.o(!!!scatter)
    __scatterload_rt2_thumb_only             0x08000139   Thumb Code     0  __scatter.o(!!!scatter)
    __scatterload_null                       0x08000147   Thumb Code     0  __scatter.o(!!!scatter)
    __scatterload_copy                       0x0800016d   Thumb Code    26  __scatter_copy.o(!!handler_copy)
    __scatterload_zeroinit                   0x08000189   Thumb Code    28  __scatter_zi.o(!!handler_zi)
    __rt_lib_init                            0x080001a5   Thumb Code     0  libinit.o(.ARM.Collect$$libinit$$00000000)
    __rt_lib_init_alloca_1                   0x080001a7   Thumb Code     0  libinit2.o(.ARM.Collect$$libinit$$0000002E)
    __rt_lib_init_argv_1                     0x080001a7   Thumb Code     0  libinit2.o(.ARM.Collect$$libinit$$0000002C)
    __rt_lib_init_atexit_1                   0x080001a7   Thumb Code     0  libinit2.o(.ARM.Collect$$libinit$$0000001B)
    __rt_lib_init_clock_1                    0x080001a7   Thumb Code     0  libinit2.o(.ARM.Collect$$libinit$$00000021)
    __rt_lib_init_cpp_1                      0x080001a7   Thumb Code     0  libinit2.o(.ARM.Collect$$libinit$$00000032)
    __rt_lib_init_exceptions_1               0x080001a7   Thumb Code     0  libinit2.o(.ARM.Collect$$libinit$$00000030)
    __rt_lib_init_fp_1                       0x080001a7   Thumb Code     0  libinit2.o(.ARM.Collect$$libinit$$00000002)
    __rt_lib_init_fp_trap_1                  0x080001a7   Thumb Code     0  libinit2.o(.ARM.Collect$$libinit$$0000001F)
    __rt_lib_init_getenv_1                   0x080001a7   Thumb Code     0  libinit2.o(.ARM.Collect$$libinit$$00000023)
    __rt_lib_init_heap_1                     0x080001a7   Thumb Code     0  libinit2.o(.ARM.Collect$$libinit$$0000000A)
    __rt_lib_init_lc_collate_1               0x080001a7   Thumb Code     0  libinit2.o(.ARM.Collect$$libinit$$00000011)
    __rt_lib_init_lc_ctype_1                 0x080001a7   Thumb Code     0  libinit2.o(.ARM.Collect$$libinit$$00000013)
    __rt_lib_init_lc_monetary_1              0x080001a7   Thumb Code     0  libinit2.o(.ARM.Collect$$libinit$$00000015)
    __rt_lib_init_lc_numeric_1               0x080001a7   Thumb Code     0  libinit2.o(.ARM.Collect$$libinit$$00000017)
    __rt_lib_init_lc_time_1                  0x080001a7   Thumb Code     0  libinit2.o(.ARM.Collect$$libinit$$00000019)
    __rt_lib_init_preinit_1                  0x080001a7   Thumb Code     0  libinit2.o(.ARM.Collect$$libinit$$00000004)
    __rt_lib_init_rand_1                     0x080001a7   Thumb Code     0  libinit2.o(.ARM.Collect$$libinit$$0000000E)
    __rt_lib_init_return                     0x080001a7   Thumb Code     0  libinit2.o(.ARM.Collect$$libinit$$00000033)
    __rt_lib_init_signal_1                   0x080001a7   Thumb Code     0  libinit2.o(.ARM.Collect$$libinit$$0000001D)
    __rt_lib_init_stdio_1                    0x080001a7   Thumb Code     0  libinit2.o(.ARM.Collect$$libinit$$00000025)
    __rt_lib_init_user_alloc_1               0x080001a7   Thumb Code     0  libinit2.o(.ARM.Collect$$libinit$$0000000C)
    __rt_lib_shutdown                        0x080001a9   Thumb Code     0  libshutdown.o(.ARM.Collect$$libshutdown$$00000000)
    __rt_lib_shutdown_fp_trap_1              0x080001ab   Thumb Code     0  libshutdown2.o(.ARM.Collect$$libshutdown$$00000006)
    __rt_lib_shutdown_heap_1                 0x080001ab   Thumb Code     0  libshutdown2.o(.ARM.Collect$$libshutdown$$0000000E)
    __rt_lib_shutdown_return                 0x080001ab   Thumb Code     0  libshutdown2.o(.ARM.Collect$$libshutdown$$0000000F)
    __rt_lib_shutdown_signal_1               0x080001ab   Thumb Code     0  libshutdown2.o(.ARM.Collect$$libshutdown$$00000009)
    __rt_lib_shutdown_stdio_1                0x080001ab   Thumb Code     0  libshutdown2.o(.ARM.Collect$$libshutdown$$00000003)
    __rt_lib_shutdown_user_alloc_1           0x080001ab   Thumb Code     0  libshutdown2.o(.ARM.Collect$$libshutdown$$0000000B)
    __rt_entry                               0x080001ad   Thumb Code     0  __rtentry.o(.ARM.Collect$$rtentry$$00000000)
    __rt_entry_presh_1                       0x080001ad   Thumb Code     0  __rtentry2.o(.ARM.Collect$$rtentry$$00000002)
    __rt_entry_sh                            0x080001ad   Thumb Code     0  __rtentry4.o(.ARM.Collect$$rtentry$$00000004)
    __rt_entry_li                            0x080001b3   Thumb Code     0  __rtentry2.o(.ARM.Collect$$rtentry$$0000000A)
    __rt_entry_postsh_1                      0x080001b3   Thumb Code     0  __rtentry2.o(.ARM.Collect$$rtentry$$00000009)
    __rt_entry_main                          0x080001b7   Thumb Code     0  __rtentry2.o(.ARM.Collect$$rtentry$$0000000D)
    __rt_entry_postli_1                      0x080001b7   Thumb Code     0  __rtentry2.o(.ARM.Collect$$rtentry$$0000000C)
    __rt_exit                                0x080001bf   Thumb Code     0  rtexit.o(.ARM.Collect$$rtexit$$00000000)
    __rt_exit_ls                             0x080001c1   Thumb Code     0  rtexit2.o(.ARM.Collect$$rtexit$$00000003)
    __rt_exit_prels_1                        0x080001c1   Thumb Code     0  rtexit2.o(.ARM.Collect$$rtexit$$00000002)
    __rt_exit_exit                           0x080001c5   Thumb Code     0  rtexit2.o(.ARM.Collect$$rtexit$$00000004)
    OLED_Main_display                        0x080001cd   Thumb Code    60  main.o(.text)
    OLED_Value_display                       0x08000209   Thumb Code   278  main.o(.text)
    myabs                                    0x0800031f   Thumb Code    14  main.o(.text)
    OLED_Waveform_display                    0x0800032d   Thumb Code   164  main.o(.text)
    ADC_deal                                 0x080003d1   Thumb Code    56  main.o(.text)
    KEY_deal                                 0x08000409   Thumb Code    78  main.o(.text)
    HeartRate_deal                           0x08000457   Thumb Code   562  main.o(.text)
    Waveform_deal                            0x08000689   Thumb Code   206  main.o(.text)
    TIM3_IRQHandler                          0x08000757   Thumb Code    52  main.o(.text)
    main                                     0x0800078b   Thumb Code    82  main.o(.text)
    NMI_Handler                              0x08000825   Thumb Code     2  stm32f10x_it.o(.text)
    HardFault_Handler                        0x08000827   Thumb Code     4  stm32f10x_it.o(.text)
    MemManage_Handler                        0x0800082b   Thumb Code     4  stm32f10x_it.o(.text)
    BusFault_Handler                         0x0800082f   Thumb Code     4  stm32f10x_it.o(.text)
    UsageFault_Handler                       0x08000833   Thumb Code     4  stm32f10x_it.o(.text)
    SVC_Handler                              0x08000837   Thumb Code     2  stm32f10x_it.o(.text)
    DebugMon_Handler                         0x08000839   Thumb Code     2  stm32f10x_it.o(.text)
    PendSV_Handler                           0x0800083b   Thumb Code     2  stm32f10x_it.o(.text)
    SysTick_Handler                          0x0800083d   Thumb Code     2  stm32f10x_it.o(.text)
    SystemInit                               0x0800091f   Thumb Code    78  system_stm32f10x.o(.text)
    SystemCoreClockUpdate                    0x0800096d   Thumb Code   142  system_stm32f10x.o(.text)
    Reset_Handler                            0x08000a21   Thumb Code     8  startup_stm32f10x_hd.o(.text)
    ADC1_2_IRQHandler                        0x08000a3b   Thumb Code     0  startup_stm32f10x_hd.o(.text)
    ADC3_IRQHandler                          0x08000a3b   Thumb Code     0  startup_stm32f10x_hd.o(.text)
    CAN1_RX1_IRQHandler                      0x08000a3b   Thumb Code     0  startup_stm32f10x_hd.o(.text)
    CAN1_SCE_IRQHandler                      0x08000a3b   Thumb Code     0  startup_stm32f10x_hd.o(.text)
    DMA1_Channel1_IRQHandler                 0x08000a3b   Thumb Code     0  startup_stm32f10x_hd.o(.text)
    DMA1_Channel2_IRQHandler                 0x08000a3b   Thumb Code     0  startup_stm32f10x_hd.o(.text)
    DMA1_Channel3_IRQHandler                 0x08000a3b   Thumb Code     0  startup_stm32f10x_hd.o(.text)
    DMA1_Channel4_IRQHandler                 0x08000a3b   Thumb Code     0  startup_stm32f10x_hd.o(.text)
    DMA1_Channel5_IRQHandler                 0x08000a3b   Thumb Code     0  startup_stm32f10x_hd.o(.text)
    DMA1_Channel6_IRQHandler                 0x08000a3b   Thumb Code     0  startup_stm32f10x_hd.o(.text)
    DMA1_Channel7_IRQHandler                 0x08000a3b   Thumb Code     0  startup_stm32f10x_hd.o(.text)
    DMA2_Channel1_IRQHandler                 0x08000a3b   Thumb Code     0  startup_stm32f10x_hd.o(.text)
    DMA2_Channel2_IRQHandler                 0x08000a3b   Thumb Code     0  startup_stm32f10x_hd.o(.text)
    DMA2_Channel3_IRQHandler                 0x08000a3b   Thumb Code     0  startup_stm32f10x_hd.o(.text)
    DMA2_Channel4_5_IRQHandler               0x08000a3b   Thumb Code     0  startup_stm32f10x_hd.o(.text)
    EXTI0_IRQHandler                         0x08000a3b   Thumb Code     0  startup_stm32f10x_hd.o(.text)
    EXTI15_10_IRQHandler                     0x08000a3b   Thumb Code     0  startup_stm32f10x_hd.o(.text)
    EXTI1_IRQHandler                         0x08000a3b   Thumb Code     0  startup_stm32f10x_hd.o(.text)
    EXTI2_IRQHandler                         0x08000a3b   Thumb Code     0  startup_stm32f10x_hd.o(.text)
    EXTI3_IRQHandler                         0x08000a3b   Thumb Code     0  startup_stm32f10x_hd.o(.text)
    EXTI4_IRQHandler                         0x08000a3b   Thumb Code     0  startup_stm32f10x_hd.o(.text)
    EXTI9_5_IRQHandler                       0x08000a3b   Thumb Code     0  startup_stm32f10x_hd.o(.text)
    FLASH_IRQHandler                         0x08000a3b   Thumb Code     0  startup_stm32f10x_hd.o(.text)
    FSMC_IRQHandler                          0x08000a3b   Thumb Code     0  startup_stm32f10x_hd.o(.text)
    I2C1_ER_IRQHandler                       0x08000a3b   Thumb Code     0  startup_stm32f10x_hd.o(.text)
    I2C1_EV_IRQHandler                       0x08000a3b   Thumb Code     0  startup_stm32f10x_hd.o(.text)
    I2C2_ER_IRQHandler                       0x08000a3b   Thumb Code     0  startup_stm32f10x_hd.o(.text)
    I2C2_EV_IRQHandler                       0x08000a3b   Thumb Code     0  startup_stm32f10x_hd.o(.text)
    PVD_IRQHandler                           0x08000a3b   Thumb Code     0  startup_stm32f10x_hd.o(.text)
    RCC_IRQHandler                           0x08000a3b   Thumb Code     0  startup_stm32f10x_hd.o(.text)
    RTCAlarm_IRQHandler                      0x08000a3b   Thumb Code     0  startup_stm32f10x_hd.o(.text)
    RTC_IRQHandler                           0x08000a3b   Thumb Code     0  startup_stm32f10x_hd.o(.text)
    SDIO_IRQHandler                          0x08000a3b   Thumb Code     0  startup_stm32f10x_hd.o(.text)
    SPI1_IRQHandler                          0x08000a3b   Thumb Code     0  startup_stm32f10x_hd.o(.text)
    SPI2_IRQHandler                          0x08000a3b   Thumb Code     0  startup_stm32f10x_hd.o(.text)
    SPI3_IRQHandler                          0x08000a3b   Thumb Code     0  startup_stm32f10x_hd.o(.text)
    TAMPER_IRQHandler                        0x08000a3b   Thumb Code     0  startup_stm32f10x_hd.o(.text)
    TIM1_BRK_IRQHandler                      0x08000a3b   Thumb Code     0  startup_stm32f10x_hd.o(.text)
    TIM1_CC_IRQHandler                       0x08000a3b   Thumb Code     0  startup_stm32f10x_hd.o(.text)
    TIM1_TRG_COM_IRQHandler                  0x08000a3b   Thumb Code     0  startup_stm32f10x_hd.o(.text)
    TIM1_UP_IRQHandler                       0x08000a3b   Thumb Code     0  startup_stm32f10x_hd.o(.text)
    TIM2_IRQHandler                          0x08000a3b   Thumb Code     0  startup_stm32f10x_hd.o(.text)
    TIM4_IRQHandler                          0x08000a3b   Thumb Code     0  startup_stm32f10x_hd.o(.text)
    TIM5_IRQHandler                          0x08000a3b   Thumb Code     0  startup_stm32f10x_hd.o(.text)
    TIM6_IRQHandler                          0x08000a3b   Thumb Code     0  startup_stm32f10x_hd.o(.text)
    TIM7_IRQHandler                          0x08000a3b   Thumb Code     0  startup_stm32f10x_hd.o(.text)
    TIM8_BRK_IRQHandler                      0x08000a3b   Thumb Code     0  startup_stm32f10x_hd.o(.text)
    TIM8_CC_IRQHandler                       0x08000a3b   Thumb Code     0  startup_stm32f10x_hd.o(.text)
    TIM8_TRG_COM_IRQHandler                  0x08000a3b   Thumb Code     0  startup_stm32f10x_hd.o(.text)
    TIM8_UP_IRQHandler                       0x08000a3b   Thumb Code     0  startup_stm32f10x_hd.o(.text)
    UART4_IRQHandler                         0x08000a3b   Thumb Code     0  startup_stm32f10x_hd.o(.text)
    UART5_IRQHandler                         0x08000a3b   Thumb Code     0  startup_stm32f10x_hd.o(.text)
    USART2_IRQHandler                        0x08000a3b   Thumb Code     0  startup_stm32f10x_hd.o(.text)
    USART3_IRQHandler                        0x08000a3b   Thumb Code     0  startup_stm32f10x_hd.o(.text)
    USBWakeUp_IRQHandler                     0x08000a3b   Thumb Code     0  startup_stm32f10x_hd.o(.text)
    USB_HP_CAN1_TX_IRQHandler                0x08000a3b   Thumb Code     0  startup_stm32f10x_hd.o(.text)
    USB_LP_CAN1_RX0_IRQHandler               0x08000a3b   Thumb Code     0  startup_stm32f10x_hd.o(.text)
    WWDG_IRQHandler                          0x08000a3b   Thumb Code     0  startup_stm32f10x_hd.o(.text)
    __user_initial_stackheap                 0x08000a3d   Thumb Code     0  startup_stm32f10x_hd.o(.text)
    NVIC_PriorityGroupConfig                 0x08000a61   Thumb Code    10  misc.o(.text)
    NVIC_Init                                0x08000a6b   Thumb Code   100  misc.o(.text)
    NVIC_SetVectorTable                      0x08000acf   Thumb Code    14  misc.o(.text)
    NVIC_SystemLPConfig                      0x08000add   Thumb Code    34  misc.o(.text)
    SysTick_CLKSourceConfig                  0x08000aff   Thumb Code    40  misc.o(.text)
    ADC_DeInit                               0x08000b3d   Thumb Code    78  stm32f10x_adc.o(.text)
    ADC_Init                                 0x08000b8b   Thumb Code    70  stm32f10x_adc.o(.text)
    ADC_StructInit                           0x08000bd1   Thumb Code    18  stm32f10x_adc.o(.text)
    ADC_Cmd                                  0x08000be3   Thumb Code    22  stm32f10x_adc.o(.text)
    ADC_DMACmd                               0x08000bf9   Thumb Code    22  stm32f10x_adc.o(.text)
    ADC_ITConfig                             0x08000c0f   Thumb Code    24  stm32f10x_adc.o(.text)
    ADC_ResetCalibration                     0x08000c27   Thumb Code    10  stm32f10x_adc.o(.text)
    ADC_GetResetCalibrationStatus            0x08000c31   Thumb Code    20  stm32f10x_adc.o(.text)
    ADC_StartCalibration                     0x08000c45   Thumb Code    10  stm32f10x_adc.o(.text)
    ADC_GetCalibrationStatus                 0x08000c4f   Thumb Code    20  stm32f10x_adc.o(.text)
    ADC_SoftwareStartConvCmd                 0x08000c63   Thumb Code    22  stm32f10x_adc.o(.text)
    ADC_GetSoftwareStartConvStatus           0x08000c79   Thumb Code    20  stm32f10x_adc.o(.text)
    ADC_DiscModeChannelCountConfig           0x08000c8d   Thumb Code    24  stm32f10x_adc.o(.text)
    ADC_DiscModeCmd                          0x08000ca5   Thumb Code    22  stm32f10x_adc.o(.text)
    ADC_RegularChannelConfig                 0x08000cbb   Thumb Code   184  stm32f10x_adc.o(.text)
    ADC_ExternalTrigConvCmd                  0x08000d73   Thumb Code    22  stm32f10x_adc.o(.text)
    ADC_GetConversionValue                   0x08000d89   Thumb Code     8  stm32f10x_adc.o(.text)
    ADC_GetDualModeConversionValue           0x08000d91   Thumb Code     8  stm32f10x_adc.o(.text)
    ADC_AutoInjectedConvCmd                  0x08000d99   Thumb Code    22  stm32f10x_adc.o(.text)
    ADC_InjectedDiscModeCmd                  0x08000daf   Thumb Code    22  stm32f10x_adc.o(.text)
    ADC_ExternalTrigInjectedConvConfig       0x08000dc5   Thumb Code    16  stm32f10x_adc.o(.text)
    ADC_ExternalTrigInjectedConvCmd          0x08000dd5   Thumb Code    22  stm32f10x_adc.o(.text)
    ADC_SoftwareStartInjectedConvCmd         0x08000deb   Thumb Code    22  stm32f10x_adc.o(.text)
    ADC_GetSoftwareStartInjectedConvCmdStatus 0x08000e01   Thumb Code    20  stm32f10x_adc.o(.text)
    ADC_InjectedChannelConfig                0x08000e15   Thumb Code   130  stm32f10x_adc.o(.text)
    ADC_InjectedSequencerLengthConfig        0x08000e97   Thumb Code    24  stm32f10x_adc.o(.text)
    ADC_SetInjectedOffset                    0x08000eaf   Thumb Code    20  stm32f10x_adc.o(.text)
    ADC_GetInjectedConversionValue           0x08000ec3   Thumb Code    28  stm32f10x_adc.o(.text)
    ADC_AnalogWatchdogCmd                    0x08000edf   Thumb Code    16  stm32f10x_adc.o(.text)
    ADC_AnalogWatchdogThresholdsConfig       0x08000eef   Thumb Code     6  stm32f10x_adc.o(.text)
    ADC_AnalogWatchdogSingleChannelConfig    0x08000ef5   Thumb Code    16  stm32f10x_adc.o(.text)
    ADC_TempSensorVrefintCmd                 0x08000f05   Thumb Code    64  stm32f10x_adc.o(.text)
    ADC_GetFlagStatus                        0x08000f45   Thumb Code    18  stm32f10x_adc.o(.text)
    ADC_ClearFlag                            0x08000f57   Thumb Code     6  stm32f10x_adc.o(.text)
    ADC_GetITStatus                          0x08000f5d   Thumb Code    36  stm32f10x_adc.o(.text)
    ADC_ClearITPendingBit                    0x08000f81   Thumb Code    10  stm32f10x_adc.o(.text)
    GPIO_DeInit                              0x08000f8d   Thumb Code   172  stm32f10x_gpio.o(.text)
    GPIO_AFIODeInit                          0x08001039   Thumb Code    20  stm32f10x_gpio.o(.text)
    GPIO_Init                                0x0800104d   Thumb Code   278  stm32f10x_gpio.o(.text)
    GPIO_StructInit                          0x08001163   Thumb Code    16  stm32f10x_gpio.o(.text)
    GPIO_ReadInputDataBit                    0x08001173   Thumb Code    18  stm32f10x_gpio.o(.text)
    GPIO_ReadInputData                       0x08001185   Thumb Code     8  stm32f10x_gpio.o(.text)
    GPIO_ReadOutputDataBit                   0x0800118d   Thumb Code    18  stm32f10x_gpio.o(.text)
    GPIO_ReadOutputData                      0x0800119f   Thumb Code     8  stm32f10x_gpio.o(.text)
    GPIO_SetBits                             0x080011a7   Thumb Code     4  stm32f10x_gpio.o(.text)
    GPIO_ResetBits                           0x080011ab   Thumb Code     4  stm32f10x_gpio.o(.text)
    GPIO_WriteBit                            0x080011af   Thumb Code    10  stm32f10x_gpio.o(.text)
    GPIO_Write                               0x080011b9   Thumb Code     4  stm32f10x_gpio.o(.text)
    GPIO_PinLockConfig                       0x080011bd   Thumb Code    18  stm32f10x_gpio.o(.text)
    GPIO_EventOutputConfig                   0x080011cf   Thumb Code    26  stm32f10x_gpio.o(.text)
    GPIO_EventOutputCmd                      0x080011e9   Thumb Code     6  stm32f10x_gpio.o(.text)
    GPIO_PinRemapConfig                      0x080011ef   Thumb Code   138  stm32f10x_gpio.o(.text)
    GPIO_EXTILineConfig                      0x08001279   Thumb Code    66  stm32f10x_gpio.o(.text)
    GPIO_ETH_MediaInterfaceConfig            0x080012bb   Thumb Code     8  stm32f10x_gpio.o(.text)
    RCC_DeInit                               0x080012e9   Thumb Code    64  stm32f10x_rcc.o(.text)
    RCC_HSEConfig                            0x08001329   Thumb Code    70  stm32f10x_rcc.o(.text)
    RCC_GetFlagStatus                        0x0800136f   Thumb Code    56  stm32f10x_rcc.o(.text)
    RCC_WaitForHSEStartUp                    0x080013a7   Thumb Code    56  stm32f10x_rcc.o(.text)
    RCC_AdjustHSICalibrationValue            0x080013df   Thumb Code    20  stm32f10x_rcc.o(.text)
    RCC_HSICmd                               0x080013f3   Thumb Code     6  stm32f10x_rcc.o(.text)
    RCC_PLLConfig                            0x080013f9   Thumb Code    24  stm32f10x_rcc.o(.text)
    RCC_PLLCmd                               0x08001411   Thumb Code     6  stm32f10x_rcc.o(.text)
    RCC_SYSCLKConfig                         0x08001417   Thumb Code    18  stm32f10x_rcc.o(.text)
    RCC_GetSYSCLKSource                      0x08001429   Thumb Code    10  stm32f10x_rcc.o(.text)
    RCC_HCLKConfig                           0x08001433   Thumb Code    18  stm32f10x_rcc.o(.text)
    RCC_PCLK1Config                          0x08001445   Thumb Code    18  stm32f10x_rcc.o(.text)
    RCC_PCLK2Config                          0x08001457   Thumb Code    20  stm32f10x_rcc.o(.text)
    RCC_ITConfig                             0x0800146b   Thumb Code    26  stm32f10x_rcc.o(.text)
    RCC_USBCLKConfig                         0x08001485   Thumb Code     8  stm32f10x_rcc.o(.text)
    RCC_ADCCLKConfig                         0x0800148d   Thumb Code    18  stm32f10x_rcc.o(.text)
    RCC_LSEConfig                            0x0800149f   Thumb Code    50  stm32f10x_rcc.o(.text)
    RCC_LSICmd                               0x080014d1   Thumb Code     6  stm32f10x_rcc.o(.text)
    RCC_RTCCLKConfig                         0x080014d7   Thumb Code    12  stm32f10x_rcc.o(.text)
    RCC_RTCCLKCmd                            0x080014e3   Thumb Code     8  stm32f10x_rcc.o(.text)
    RCC_GetClocksFreq                        0x080014eb   Thumb Code   192  stm32f10x_rcc.o(.text)
    RCC_AHBPeriphClockCmd                    0x080015ab   Thumb Code    26  stm32f10x_rcc.o(.text)
    RCC_APB2PeriphClockCmd                   0x080015c5   Thumb Code    26  stm32f10x_rcc.o(.text)
    RCC_APB1PeriphClockCmd                   0x080015df   Thumb Code    26  stm32f10x_rcc.o(.text)
    RCC_APB2PeriphResetCmd                   0x080015f9   Thumb Code    26  stm32f10x_rcc.o(.text)
    RCC_APB1PeriphResetCmd                   0x08001613   Thumb Code    26  stm32f10x_rcc.o(.text)
    RCC_BackupResetCmd                       0x0800162d   Thumb Code     8  stm32f10x_rcc.o(.text)
    RCC_ClockSecuritySystemCmd               0x08001635   Thumb Code     6  stm32f10x_rcc.o(.text)
    RCC_MCOConfig                            0x0800163b   Thumb Code     6  stm32f10x_rcc.o(.text)
    RCC_ClearFlag                            0x08001641   Thumb Code    14  stm32f10x_rcc.o(.text)
    RCC_GetITStatus                          0x0800164f   Thumb Code    20  stm32f10x_rcc.o(.text)
    RCC_ClearITPendingBit                    0x08001663   Thumb Code     6  stm32f10x_rcc.o(.text)
    TIM_DeInit                               0x0800168d   Thumb Code   424  stm32f10x_tim.o(.text)
    TIM_TimeBaseInit                         0x08001835   Thumb Code   122  stm32f10x_tim.o(.text)
    TIM_OC1Init                              0x080018af   Thumb Code   132  stm32f10x_tim.o(.text)
    TIM_OC2Init                              0x08001933   Thumb Code   154  stm32f10x_tim.o(.text)
    TIM_OC3Init                              0x080019cd   Thumb Code   150  stm32f10x_tim.o(.text)
    TIM_OC4Init                              0x08001a63   Thumb Code   182  stm32f10x_tim.o(.text)
    TIM_SetIC4Prescaler                      0x08001b19   Thumb Code    26  stm32f10x_tim.o(.text)
    TIM_SetIC3Prescaler                      0x08001bb5   Thumb Code    18  stm32f10x_tim.o(.text)
    TIM_SetIC2Prescaler                      0x08001c41   Thumb Code    26  stm32f10x_tim.o(.text)
    TIM_SetIC1Prescaler                      0x08001cdd   Thumb Code    18  stm32f10x_tim.o(.text)
    TIM_ICInit                               0x08001d5b   Thumb Code   150  stm32f10x_tim.o(.text)
    TIM_PWMIConfig                           0x08001df1   Thumb Code   124  stm32f10x_tim.o(.text)
    TIM_BDTRConfig                           0x08001e6d   Thumb Code    32  stm32f10x_tim.o(.text)
    TIM_TimeBaseStructInit                   0x08001e8d   Thumb Code    18  stm32f10x_tim.o(.text)
    TIM_OCStructInit                         0x08001e9f   Thumb Code    20  stm32f10x_tim.o(.text)
    TIM_ICStructInit                         0x08001eb3   Thumb Code    18  stm32f10x_tim.o(.text)
    TIM_BDTRStructInit                       0x08001ec5   Thumb Code    40  stm32f10x_tim.o(.text)
    TIM_Cmd                                  0x08001eed   Thumb Code    24  stm32f10x_tim.o(.text)
    TIM_CtrlPWMOutputs                       0x08001f05   Thumb Code    30  stm32f10x_tim.o(.text)
    TIM_ITConfig                             0x08001f23   Thumb Code    18  stm32f10x_tim.o(.text)
    TIM_GenerateEvent                        0x08001f35   Thumb Code     4  stm32f10x_tim.o(.text)
    TIM_DMAConfig                            0x08001f39   Thumb Code    10  stm32f10x_tim.o(.text)
    TIM_DMACmd                               0x08001f43   Thumb Code    18  stm32f10x_tim.o(.text)
    TIM_InternalClockConfig                  0x08001f55   Thumb Code    12  stm32f10x_tim.o(.text)
    TIM_SelectInputTrigger                   0x08001f61   Thumb Code    18  stm32f10x_tim.o(.text)
    TIM_ITRxExternalClockConfig              0x08001f73   Thumb Code    24  stm32f10x_tim.o(.text)
    TIM_TIxExternalClockConfig               0x08001f8b   Thumb Code    62  stm32f10x_tim.o(.text)
    TIM_ETRConfig                            0x08001fc9   Thumb Code    28  stm32f10x_tim.o(.text)
    TIM_ETRClockMode1Config                  0x08001fe5   Thumb Code    54  stm32f10x_tim.o(.text)
    TIM_ETRClockMode2Config                  0x0800201b   Thumb Code    32  stm32f10x_tim.o(.text)
    TIM_PrescalerConfig                      0x0800203b   Thumb Code     6  stm32f10x_tim.o(.text)
    TIM_CounterModeConfig                    0x08002041   Thumb Code    18  stm32f10x_tim.o(.text)
    TIM_EncoderInterfaceConfig               0x08002053   Thumb Code    66  stm32f10x_tim.o(.text)
    TIM_ForcedOC1Config                      0x08002095   Thumb Code    18  stm32f10x_tim.o(.text)
    TIM_ForcedOC2Config                      0x080020a7   Thumb Code    26  stm32f10x_tim.o(.text)
    TIM_ForcedOC3Config                      0x080020c1   Thumb Code    18  stm32f10x_tim.o(.text)
    TIM_ForcedOC4Config                      0x080020d3   Thumb Code    26  stm32f10x_tim.o(.text)
    TIM_ARRPreloadConfig                     0x080020ed   Thumb Code    24  stm32f10x_tim.o(.text)
    TIM_SelectCOM                            0x08002105   Thumb Code    24  stm32f10x_tim.o(.text)
    TIM_SelectCCDMA                          0x0800211d   Thumb Code    24  stm32f10x_tim.o(.text)
    TIM_CCPreloadControl                     0x08002135   Thumb Code    24  stm32f10x_tim.o(.text)
    TIM_OC1PreloadConfig                     0x0800214d   Thumb Code    18  stm32f10x_tim.o(.text)
    TIM_OC2PreloadConfig                     0x0800215f   Thumb Code    26  stm32f10x_tim.o(.text)
    TIM_OC3PreloadConfig                     0x08002179   Thumb Code    18  stm32f10x_tim.o(.text)
    TIM_OC4PreloadConfig                     0x0800218b   Thumb Code    26  stm32f10x_tim.o(.text)
    TIM_OC1FastConfig                        0x080021a5   Thumb Code    18  stm32f10x_tim.o(.text)
    TIM_OC2FastConfig                        0x080021b7   Thumb Code    26  stm32f10x_tim.o(.text)
    TIM_OC3FastConfig                        0x080021d1   Thumb Code    18  stm32f10x_tim.o(.text)
    TIM_OC4FastConfig                        0x080021e3   Thumb Code    26  stm32f10x_tim.o(.text)
    TIM_ClearOC1Ref                          0x080021fd   Thumb Code    18  stm32f10x_tim.o(.text)
    TIM_ClearOC2Ref                          0x0800220f   Thumb Code    24  stm32f10x_tim.o(.text)
    TIM_ClearOC3Ref                          0x08002227   Thumb Code    18  stm32f10x_tim.o(.text)
    TIM_ClearOC4Ref                          0x08002239   Thumb Code    24  stm32f10x_tim.o(.text)
    TIM_OC1PolarityConfig                    0x08002251   Thumb Code    18  stm32f10x_tim.o(.text)
    TIM_OC1NPolarityConfig                   0x08002263   Thumb Code    18  stm32f10x_tim.o(.text)
    TIM_OC2PolarityConfig                    0x08002275   Thumb Code    26  stm32f10x_tim.o(.text)
    TIM_OC2NPolarityConfig                   0x0800228f   Thumb Code    26  stm32f10x_tim.o(.text)
    TIM_OC3PolarityConfig                    0x080022a9   Thumb Code    26  stm32f10x_tim.o(.text)
    TIM_OC3NPolarityConfig                   0x080022c3   Thumb Code    26  stm32f10x_tim.o(.text)
    TIM_OC4PolarityConfig                    0x080022dd   Thumb Code    26  stm32f10x_tim.o(.text)
    TIM_CCxCmd                               0x080022f7   Thumb Code    30  stm32f10x_tim.o(.text)
    TIM_CCxNCmd                              0x08002315   Thumb Code    30  stm32f10x_tim.o(.text)
    TIM_SelectOCxM                           0x08002333   Thumb Code    82  stm32f10x_tim.o(.text)
    TIM_UpdateDisableConfig                  0x08002385   Thumb Code    24  stm32f10x_tim.o(.text)
    TIM_UpdateRequestConfig                  0x0800239d   Thumb Code    24  stm32f10x_tim.o(.text)
    TIM_SelectHallSensor                     0x080023b5   Thumb Code    24  stm32f10x_tim.o(.text)
    TIM_SelectOnePulseMode                   0x080023cd   Thumb Code    18  stm32f10x_tim.o(.text)
    TIM_SelectOutputTrigger                  0x080023df   Thumb Code    18  stm32f10x_tim.o(.text)
    TIM_SelectSlaveMode                      0x080023f1   Thumb Code    18  stm32f10x_tim.o(.text)
    TIM_SelectMasterSlaveMode                0x08002403   Thumb Code    18  stm32f10x_tim.o(.text)
    TIM_SetCounter                           0x08002415   Thumb Code     4  stm32f10x_tim.o(.text)
    TIM_SetAutoreload                        0x08002419   Thumb Code     4  stm32f10x_tim.o(.text)
    TIM_SetCompare1                          0x0800241d   Thumb Code     4  stm32f10x_tim.o(.text)
    TIM_SetCompare2                          0x08002421   Thumb Code     4  stm32f10x_tim.o(.text)
    TIM_SetCompare3                          0x08002425   Thumb Code     4  stm32f10x_tim.o(.text)
    TIM_SetCompare4                          0x08002429   Thumb Code     6  stm32f10x_tim.o(.text)
    TIM_SetClockDivision                     0x0800242f   Thumb Code    18  stm32f10x_tim.o(.text)
    TIM_GetCapture1                          0x08002441   Thumb Code     6  stm32f10x_tim.o(.text)
    TIM_GetCapture2                          0x08002447   Thumb Code     6  stm32f10x_tim.o(.text)
    TIM_GetCapture3                          0x0800244d   Thumb Code     6  stm32f10x_tim.o(.text)
    TIM_GetCapture4                          0x08002453   Thumb Code     8  stm32f10x_tim.o(.text)
    TIM_GetCounter                           0x0800245b   Thumb Code     6  stm32f10x_tim.o(.text)
    TIM_GetPrescaler                         0x08002461   Thumb Code     6  stm32f10x_tim.o(.text)
    TIM_GetFlagStatus                        0x08002467   Thumb Code    18  stm32f10x_tim.o(.text)
    TIM_ClearFlag                            0x08002479   Thumb Code     6  stm32f10x_tim.o(.text)
    TIM_GetITStatus                          0x0800247f   Thumb Code    34  stm32f10x_tim.o(.text)
    TIM_ClearITPendingBit                    0x080024a1   Thumb Code     6  stm32f10x_tim.o(.text)
    USART_DeInit                             0x080024a9   Thumb Code   134  stm32f10x_usart.o(.text)
    USART_Init                               0x0800252f   Thumb Code   210  stm32f10x_usart.o(.text)
    USART_StructInit                         0x08002601   Thumb Code    24  stm32f10x_usart.o(.text)
    USART_ClockInit                          0x08002619   Thumb Code    34  stm32f10x_usart.o(.text)
    USART_ClockStructInit                    0x0800263b   Thumb Code    12  stm32f10x_usart.o(.text)
    USART_Cmd                                0x08002647   Thumb Code    24  stm32f10x_usart.o(.text)
    USART_ITConfig                           0x0800265f   Thumb Code    74  stm32f10x_usart.o(.text)
    USART_DMACmd                             0x080026a9   Thumb Code    18  stm32f10x_usart.o(.text)
    USART_SetAddress                         0x080026bb   Thumb Code    18  stm32f10x_usart.o(.text)
    USART_WakeUpConfig                       0x080026cd   Thumb Code    18  stm32f10x_usart.o(.text)
    USART_ReceiverWakeUpCmd                  0x080026df   Thumb Code    24  stm32f10x_usart.o(.text)
    USART_LINBreakDetectLengthConfig         0x080026f7   Thumb Code    18  stm32f10x_usart.o(.text)
    USART_LINCmd                             0x08002709   Thumb Code    24  stm32f10x_usart.o(.text)
    USART_SendData                           0x08002721   Thumb Code     8  stm32f10x_usart.o(.text)
    USART_ReceiveData                        0x08002729   Thumb Code    10  stm32f10x_usart.o(.text)
    USART_SendBreak                          0x08002733   Thumb Code    10  stm32f10x_usart.o(.text)
    USART_SetGuardTime                       0x0800273d   Thumb Code    16  stm32f10x_usart.o(.text)
    USART_SetPrescaler                       0x0800274d   Thumb Code    16  stm32f10x_usart.o(.text)
    USART_SmartCardCmd                       0x0800275d   Thumb Code    24  stm32f10x_usart.o(.text)
    USART_SmartCardNACKCmd                   0x08002775   Thumb Code    24  stm32f10x_usart.o(.text)
    USART_HalfDuplexCmd                      0x0800278d   Thumb Code    24  stm32f10x_usart.o(.text)
    USART_OverSampling8Cmd                   0x080027a5   Thumb Code    22  stm32f10x_usart.o(.text)
    USART_OneBitMethodCmd                    0x080027bb   Thumb Code    24  stm32f10x_usart.o(.text)
    USART_IrDAConfig                         0x080027d3   Thumb Code    18  stm32f10x_usart.o(.text)
    USART_IrDACmd                            0x080027e5   Thumb Code    24  stm32f10x_usart.o(.text)
    USART_GetFlagStatus                      0x080027fd   Thumb Code    26  stm32f10x_usart.o(.text)
    USART_ClearFlag                          0x08002817   Thumb Code    18  stm32f10x_usart.o(.text)
    USART_GetITStatus                        0x08002829   Thumb Code    84  stm32f10x_usart.o(.text)
    USART_ClearITPendingBit                  0x0800287d   Thumb Code    52  stm32f10x_usart.o(.text)
    delay_init                               0x080028b1   Thumb Code    50  delay.o(.text)
    delay_us                                 0x080028e3   Thumb Code    72  delay.o(.text)
    delay_ms                                 0x0800292b   Thumb Code    72  delay.o(.text)
    _sys_exit                                0x08002985   Thumb Code     6  usart.o(.text)
    fputc                                    0x0800298b   Thumb Code    24  usart.o(.text)
    uart_init                                0x080029a3   Thumb Code   152  usart.o(.text)
    USART1_IRQHandler                        0x08002a3b   Thumb Code   122  usart.o(.text)
    Adc_Init                                 0x08002ac5   Thumb Code   132  adc.o(.text)
    Get_Adc                                  0x08002b49   Thumb Code    46  adc.o(.text)
    Get_Adc_Average                          0x08002b77   Thumb Code    46  adc.o(.text)
    TIM3_Int_Init                            0x08002bad   Thumb Code    90  timer.o(.text)
    IIC_Init                                 0x08002c0d   Thumb Code    52  myiic.o(.text)
    SDA_OUT                                  0x08002c41   Thumb Code    30  myiic.o(.text)
    SDA_IN                                   0x08002c5f   Thumb Code    30  myiic.o(.text)
    IIC_Start                                0x08002c7d   Thumb Code    50  myiic.o(.text)
    IIC_Stop                                 0x08002caf   Thumb Code    44  myiic.o(.text)
    IIC_Wait_Ack                             0x08002cdb   Thumb Code    68  myiic.o(.text)
    IIC_Ack                                  0x08002d1f   Thumb Code    48  myiic.o(.text)
    IIC_NAck                                 0x08002d4f   Thumb Code    48  myiic.o(.text)
    IIC_Send_Byte                            0x08002d7f   Thumb Code    72  myiic.o(.text)
    IIC_Read_Byte                            0x08002dc7   Thumb Code    80  myiic.o(.text)
    OLED_WrDat                               0x08002e25   Thumb Code    44  oled.o(.text)
    OLED_WrCmd                               0x08002e51   Thumb Code    44  oled.o(.text)
    OLED_OFF                                 0x08002e7d   Thumb Code    22  oled.o(.text)
    OLED_ON                                  0x08002e93   Thumb Code    22  oled.o(.text)
    OLED_Refresh_Gram                        0x08002ea9   Thumb Code    62  oled.o(.text)
    OLED_DrawPoint                           0x08002ee7   Thumb Code   100  oled.o(.text)
    OLED_Fill                                0x08002f4b   Thumb Code    58  oled.o(.text)
    OLED_Clear                               0x08002f85   Thumb Code    42  oled.o(.text)
    OLED_Init                                0x08002faf   Thumb Code   162  oled.o(.text)
    OLED_ShowChar                            0x08003051   Thumb Code   254  oled.o(.text)
    OLED_ShowHz                              0x0800314f   Thumb Code   140  oled.o(.text)
    mypow                                    0x080031db   Thumb Code    22  oled.o(.text)
    OLED_ShowNum                             0x080031f1   Thumb Code   148  oled.o(.text)
    OLED_ShowString                          0x08003285   Thumb Code   116  oled.o(.text)
    KEY_Init                                 0x080032f9   Thumb Code    52  gpio_init.o(.text)
    __use_no_semihosting                     0x08003331   Thumb Code     2  use_no_semi_2.o(.text)
    __use_two_region_memory                  0x08003333   Thumb Code     2  heapauxi.o(.text)
    __rt_heap_escrow$2region                 0x08003335   Thumb Code     2  heapauxi.o(.text)
    __rt_heap_expand$2region                 0x08003337   Thumb Code     2  heapauxi.o(.text)
    __I$use$semihosting                      0x08003339   Thumb Code     0  use_no_semi.o(.text)
    __use_no_semihosting_swi                 0x08003339   Thumb Code     2  use_no_semi.o(.text)
    __user_setup_stackheap                   0x0800333b   Thumb Code    74  sys_stackheap_outer.o(.text)
    exit                                     0x08003385   Thumb Code    12  exit.o(.text)
    __user_libspace                          0x08003391   Thumb Code     8  libspace.o(.text)
    __user_perproc_libspace                  0x08003391   Thumb Code     0  libspace.o(.text)
    __user_perthread_libspace                0x08003391   Thumb Code     0  libspace.o(.text)
    __aeabi_d2f                              0x08003399   Thumb Code     0  d2f.o(x$fpl$d2f)
    _d2f                                     0x08003399   Thumb Code    98  d2f.o(x$fpl$d2f)
    __aeabi_dmul                             0x080033fd   Thumb Code     0  dmul.o(x$fpl$dmul)
    _dmul                                    0x080033fd   Thumb Code   332  dmul.o(x$fpl$dmul)
    __fpl_dnaninf                            0x08003551   Thumb Code   156  dnaninf.o(x$fpl$dnaninf)
    __fpl_dretinf                            0x080035ed   Thumb Code    12  dretinf.o(x$fpl$dretinf)
    __aeabi_f2d                              0x080035f9   Thumb Code     0  f2d.o(x$fpl$f2d)
    _f2d                                     0x080035f9   Thumb Code    86  f2d.o(x$fpl$f2d)
    __aeabi_fadd                             0x08003651   Thumb Code     0  faddsub_clz.o(x$fpl$fadd)
    _fadd                                    0x08003651   Thumb Code   196  faddsub_clz.o(x$fpl$fadd)
    __fpl_fcmp_Inf                           0x08003715   Thumb Code    24  fcmpi.o(x$fpl$fcmpinf)
    __aeabi_f2iz                             0x0800372d   Thumb Code     0  ffix.o(x$fpl$ffix)
    _ffix                                    0x0800372d   Thumb Code    54  ffix.o(x$fpl$ffix)
    __aeabi_f2uiz                            0x08003765   Thumb Code     0  ffixu.o(x$fpl$ffixu)
    _ffixu                                   0x08003765   Thumb Code    62  ffixu.o(x$fpl$ffixu)
    __aeabi_ui2f                             0x080037a5   Thumb Code     0  fflt_clz.o(x$fpl$ffltu)
    _ffltu                                   0x080037a5   Thumb Code    38  fflt_clz.o(x$fpl$ffltu)
    __aeabi_cfcmple                          0x080037cd   Thumb Code     0  fleqf.o(x$fpl$fleqf)
    _fcmple                                  0x080037cd   Thumb Code   104  fleqf.o(x$fpl$fleqf)
    __fpl_fcmple_InfNaN                      0x0800381f   Thumb Code     0  fleqf.o(x$fpl$fleqf)
    __aeabi_fmul                             0x08003835   Thumb Code     0  fmul.o(x$fpl$fmul)
    _fmul                                    0x08003835   Thumb Code   258  fmul.o(x$fpl$fmul)
    __fpl_fnaninf                            0x08003937   Thumb Code   140  fnaninf.o(x$fpl$fnaninf)
    __fpl_fretinf                            0x080039c3   Thumb Code    10  fretinf.o(x$fpl$fretinf)
    __aeabi_cfrcmple                         0x080039cd   Thumb Code     0  frleqf.o(x$fpl$frleqf)
    _frcmple                                 0x080039cd   Thumb Code    98  frleqf.o(x$fpl$frleqf)
    __aeabi_frsub                            0x08003a2f   Thumb Code     0  faddsub_clz.o(x$fpl$frsb)
    _frsb                                    0x08003a2f   Thumb Code    20  faddsub_clz.o(x$fpl$frsb)
    __aeabi_fsub                             0x08003a45   Thumb Code     0  faddsub_clz.o(x$fpl$fsub)
    _fsub                                    0x08003a45   Thumb Code   234  faddsub_clz.o(x$fpl$fsub)
    Hz                                       0x08003b2e   Data         544  oled.o(.constdata)
    __I$use$fp                               0x08003b2e   Number         0  usenofp.o(x$fpl$usenofp)
    asc2_1206                                0x08003d4e   Data        1140  oled.o(.constdata)
    asc2_1608                                0x080041c2   Data        1520  oled.o(.constdata)
    asc2_2412                                0x080047b2   Data        3420  oled.o(.constdata)
    Region$$Table$$Base                      0x08005510   Number         0  anon$$obj.o(Region$$Table)
    Region$$Table$$Limit                     0x08005530   Number         0  anon$$obj.o(Region$$Table)
    adcx                                     0x20000000   Data           4  main.o(.data)
    display_flag                             0x20000004   Data           1  main.o(.data)
    alarm                                    0x20000005   Data           1  main.o(.data)
    alarm_en                                 0x20000006   Data           1  main.o(.data)
    waveform_flag                            0x20000007   Data           1  main.o(.data)
    BPM                                      0x20000008   Data           4  main.o(.data)
    Signal                                   0x2000000c   Data           4  main.o(.data)
    IBI                                      0x20000010   Data           4  main.o(.data)
    Pulse                                    0x20000014   Data           1  main.o(.data)
    QS                                       0x20000015   Data           1  main.o(.data)
    sampleCounter                            0x20000018   Data           4  main.o(.data)
    lastBeatTime                             0x2000001c   Data           4  main.o(.data)
    P                                        0x20000020   Data           4  main.o(.data)
    T                                        0x20000024   Data           4  main.o(.data)
    thresh                                   0x20000028   Data           4  main.o(.data)
    amp                                      0x2000002c   Data           4  main.o(.data)
    Num                                      0x20000030   Data           4  main.o(.data)
    firstBeat                                0x20000034   Data           1  main.o(.data)
    secondBeat                               0x20000035   Data           1  main.o(.data)
    SystemCoreClock                          0x20000038   Data           4  system_stm32f10x.o(.data)
    AHBPrescTable                            0x2000003c   Data          16  system_stm32f10x.o(.data)
    __stdout                                 0x20000064   Data           4  usart.o(.data)
    USART_RX_STA                             0x20000068   Data           2  usart.o(.data)
    waveform                                 0x2000006c   Data         128  main.o(.bss)
    waveform_copy                            0x200000ec   Data         128  main.o(.bss)
    rate                                     0x2000016c   Data          40  main.o(.bss)
    USART_RX_BUF                             0x20000194   Data         200  usart.o(.bss)
    OLED_GRAM                                0x2000025c   Data        1024  oled.o(.bss)
    __libspace_start                         0x2000065c   Data          96  libspace.o(.bss)
    __temporary_stack_top$libspace           0x200006bc   Data           0  libspace.o(.bss)



==============================================================================

Memory Map of the image

  Image Entry point : 0x08000131

  Load Region LR_IROM1 (Base: 0x08000000, Size: 0x0000559c, Max: 0x00080000, ABSOLUTE)

    Execution Region ER_IROM1 (Base: 0x08000000, Size: 0x00005530, Max: 0x00080000, ABSOLUTE)

    Base Addr    Size         Type   Attr      Idx    E Section Name        Object

    0x08000000   0x00000130   Data   RO          206    RESET               startup_stm32f10x_hd.o
    0x08000130   0x00000008   Code   RO          613  * !!!main             c_w.l(__main.o)
    0x08000138   0x00000034   Code   RO          810    !!!scatter          c_w.l(__scatter.o)
    0x0800016c   0x0000001a   Code   RO          812    !!handler_copy      c_w.l(__scatter_copy.o)
    0x08000186   0x00000002   PAD
    0x08000188   0x0000001c   Code   RO          814    !!handler_zi        c_w.l(__scatter_zi.o)
    0x080001a4   0x00000002   Code   RO          685    .ARM.Collect$$libinit$$00000000  c_w.l(libinit.o)
    0x080001a6   0x00000000   Code   RO          692    .ARM.Collect$$libinit$$00000002  c_w.l(libinit2.o)
    0x080001a6   0x00000000   Code   RO          694    .ARM.Collect$$libinit$$00000004  c_w.l(libinit2.o)
    0x080001a6   0x00000000   Code   RO          697    .ARM.Collect$$libinit$$0000000A  c_w.l(libinit2.o)
    0x080001a6   0x00000000   Code   RO          699    .ARM.Collect$$libinit$$0000000C  c_w.l(libinit2.o)
    0x080001a6   0x00000000   Code   RO          701    .ARM.Collect$$libinit$$0000000E  c_w.l(libinit2.o)
    0x080001a6   0x00000000   Code   RO          704    .ARM.Collect$$libinit$$00000011  c_w.l(libinit2.o)
    0x080001a6   0x00000000   Code   RO          706    .ARM.Collect$$libinit$$00000013  c_w.l(libinit2.o)
    0x080001a6   0x00000000   Code   RO          708    .ARM.Collect$$libinit$$00000015  c_w.l(libinit2.o)
    0x080001a6   0x00000000   Code   RO          710    .ARM.Collect$$libinit$$00000017  c_w.l(libinit2.o)
    0x080001a6   0x00000000   Code   RO          712    .ARM.Collect$$libinit$$00000019  c_w.l(libinit2.o)
    0x080001a6   0x00000000   Code   RO          714    .ARM.Collect$$libinit$$0000001B  c_w.l(libinit2.o)
    0x080001a6   0x00000000   Code   RO          716    .ARM.Collect$$libinit$$0000001D  c_w.l(libinit2.o)
    0x080001a6   0x00000000   Code   RO          718    .ARM.Collect$$libinit$$0000001F  c_w.l(libinit2.o)
    0x080001a6   0x00000000   Code   RO          720    .ARM.Collect$$libinit$$00000021  c_w.l(libinit2.o)
    0x080001a6   0x00000000   Code   RO          722    .ARM.Collect$$libinit$$00000023  c_w.l(libinit2.o)
    0x080001a6   0x00000000   Code   RO          724    .ARM.Collect$$libinit$$00000025  c_w.l(libinit2.o)
    0x080001a6   0x00000000   Code   RO          728    .ARM.Collect$$libinit$$0000002C  c_w.l(libinit2.o)
    0x080001a6   0x00000000   Code   RO          730    .ARM.Collect$$libinit$$0000002E  c_w.l(libinit2.o)
    0x080001a6   0x00000000   Code   RO          732    .ARM.Collect$$libinit$$00000030  c_w.l(libinit2.o)
    0x080001a6   0x00000000   Code   RO          734    .ARM.Collect$$libinit$$00000032  c_w.l(libinit2.o)
    0x080001a6   0x00000002   Code   RO          735    .ARM.Collect$$libinit$$00000033  c_w.l(libinit2.o)
    0x080001a8   0x00000002   Code   RO          753    .ARM.Collect$$libshutdown$$00000000  c_w.l(libshutdown.o)
    0x080001aa   0x00000000   Code   RO          764    .ARM.Collect$$libshutdown$$00000003  c_w.l(libshutdown2.o)
    0x080001aa   0x00000000   Code   RO          767    .ARM.Collect$$libshutdown$$00000006  c_w.l(libshutdown2.o)
    0x080001aa   0x00000000   Code   RO          770    .ARM.Collect$$libshutdown$$00000009  c_w.l(libshutdown2.o)
    0x080001aa   0x00000000   Code   RO          772    .ARM.Collect$$libshutdown$$0000000B  c_w.l(libshutdown2.o)
    0x080001aa   0x00000000   Code   RO          775    .ARM.Collect$$libshutdown$$0000000E  c_w.l(libshutdown2.o)
    0x080001aa   0x00000002   Code   RO          776    .ARM.Collect$$libshutdown$$0000000F  c_w.l(libshutdown2.o)
    0x080001ac   0x00000000   Code   RO          649    .ARM.Collect$$rtentry$$00000000  c_w.l(__rtentry.o)
    0x080001ac   0x00000000   Code   RO          662    .ARM.Collect$$rtentry$$00000002  c_w.l(__rtentry2.o)
    0x080001ac   0x00000006   Code   RO          674    .ARM.Collect$$rtentry$$00000004  c_w.l(__rtentry4.o)
    0x080001b2   0x00000000   Code   RO          664    .ARM.Collect$$rtentry$$00000009  c_w.l(__rtentry2.o)
    0x080001b2   0x00000004   Code   RO          665    .ARM.Collect$$rtentry$$0000000A  c_w.l(__rtentry2.o)
    0x080001b6   0x00000000   Code   RO          667    .ARM.Collect$$rtentry$$0000000C  c_w.l(__rtentry2.o)
    0x080001b6   0x00000008   Code   RO          668    .ARM.Collect$$rtentry$$0000000D  c_w.l(__rtentry2.o)
    0x080001be   0x00000002   Code   RO          689    .ARM.Collect$$rtexit$$00000000  c_w.l(rtexit.o)
    0x080001c0   0x00000000   Code   RO          737    .ARM.Collect$$rtexit$$00000002  c_w.l(rtexit2.o)
    0x080001c0   0x00000004   Code   RO          738    .ARM.Collect$$rtexit$$00000003  c_w.l(rtexit2.o)
    0x080001c4   0x00000006   Code   RO          739    .ARM.Collect$$rtexit$$00000004  c_w.l(rtexit2.o)
    0x080001ca   0x00000002   PAD
    0x080001cc   0x00000658   Code   RO            1    .text               main.o
    0x08000824   0x0000001a   Code   RO          134    .text               stm32f10x_it.o
    0x0800083e   0x00000002   PAD
    0x08000840   0x000001e0   Code   RO          175    .text               system_stm32f10x.o
    0x08000a20   0x00000040   Code   RO          207    .text               startup_stm32f10x_hd.o
    0x08000a60   0x000000dc   Code   RO          211    .text               misc.o
    0x08000b3c   0x0000044e   Code   RO          223    .text               stm32f10x_adc.o
    0x08000f8a   0x00000002   PAD
    0x08000f8c   0x0000035c   Code   RO          355    .text               stm32f10x_gpio.o
    0x080012e8   0x000003a4   Code   RO          403    .text               stm32f10x_rcc.o
    0x0800168c   0x00000e1a   Code   RO          453    .text               stm32f10x_tim.o
    0x080024a6   0x00000002   PAD
    0x080024a8   0x00000408   Code   RO          465    .text               stm32f10x_usart.o
    0x080028b0   0x000000d4   Code   RO          489    .text               delay.o
    0x08002984   0x00000140   Code   RO          519    .text               usart.o
    0x08002ac4   0x000000e8   Code   RO          542    .text               adc.o
    0x08002bac   0x00000060   Code   RO          554    .text               timer.o
    0x08002c0c   0x00000218   Code   RO          566    .text               myiic.o
    0x08002e24   0x000004d4   Code   RO          578    .text               oled.o
    0x080032f8   0x00000038   Code   RO          595    .text               gpio_init.o
    0x08003330   0x00000002   Code   RO          609    .text               c_w.l(use_no_semi_2.o)
    0x08003332   0x00000006   Code   RO          611    .text               c_w.l(heapauxi.o)
    0x08003338   0x00000002   Code   RO          647    .text               c_w.l(use_no_semi.o)
    0x0800333a   0x0000004a   Code   RO          676    .text               c_w.l(sys_stackheap_outer.o)
    0x08003384   0x0000000c   Code   RO          678    .text               c_w.l(exit.o)
    0x08003390   0x00000008   Code   RO          686    .text               c_w.l(libspace.o)
    0x08003398   0x00000062   Code   RO          615    x$fpl$d2f           fz_ws.l(d2f.o)
    0x080033fa   0x00000002   PAD
    0x080033fc   0x00000154   Code   RO          617    x$fpl$dmul          fz_ws.l(dmul.o)
    0x08003550   0x0000009c   Code   RO          650    x$fpl$dnaninf       fz_ws.l(dnaninf.o)
    0x080035ec   0x0000000c   Code   RO          652    x$fpl$dretinf       fz_ws.l(dretinf.o)
    0x080035f8   0x00000056   Code   RO          619    x$fpl$f2d           fz_ws.l(f2d.o)
    0x0800364e   0x00000002   PAD
    0x08003650   0x000000c4   Code   RO          621    x$fpl$fadd          fz_ws.l(faddsub_clz.o)
    0x08003714   0x00000018   Code   RO          654    x$fpl$fcmpinf       fz_ws.l(fcmpi.o)
    0x0800372c   0x00000036   Code   RO          627    x$fpl$ffix          fz_ws.l(ffix.o)
    0x08003762   0x00000002   PAD
    0x08003764   0x0000003e   Code   RO          631    x$fpl$ffixu         fz_ws.l(ffixu.o)
    0x080037a2   0x00000002   PAD
    0x080037a4   0x00000026   Code   RO          635    x$fpl$ffltu         fz_ws.l(fflt_clz.o)
    0x080037ca   0x00000002   PAD
    0x080037cc   0x00000068   Code   RO          641    x$fpl$fleqf         fz_ws.l(fleqf.o)
    0x08003834   0x00000102   Code   RO          643    x$fpl$fmul          fz_ws.l(fmul.o)
    0x08003936   0x0000008c   Code   RO          656    x$fpl$fnaninf       fz_ws.l(fnaninf.o)
    0x080039c2   0x0000000a   Code   RO          658    x$fpl$fretinf       fz_ws.l(fretinf.o)
    0x080039cc   0x00000062   Code   RO          645    x$fpl$frleqf        fz_ws.l(frleqf.o)
    0x08003a2e   0x00000014   Code   RO          622    x$fpl$frsb          fz_ws.l(faddsub_clz.o)
    0x08003a42   0x00000002   PAD
    0x08003a44   0x000000ea   Code   RO          623    x$fpl$fsub          fz_ws.l(faddsub_clz.o)
    0x08003b2e   0x00000000   Code   RO          660    x$fpl$usenofp       fz_ws.l(usenofp.o)
    0x08003b2e   0x000019e0   Data   RO          580    .constdata          oled.o
    0x0800550e   0x00000002   PAD
    0x08005510   0x00000020   Data   RO          808    Region$$Table       anon$$obj.o


    Execution Region RW_IRAM1 (Base: 0x20000000, Size: 0x00000cc0, Max: 0x00010000, ABSOLUTE)

    Base Addr    Size         Type   Attr      Idx    E Section Name        Object

    0x20000000   0x00000038   Data   RW            3    .data               main.o
    0x20000038   0x00000014   Data   RW          176    .data               system_stm32f10x.o
    0x2000004c   0x00000014   Data   RW          404    .data               stm32f10x_rcc.o
    0x20000060   0x00000004   Data   RW          490    .data               delay.o
    0x20000064   0x00000006   Data   RW          521    .data               usart.o
    0x2000006a   0x00000002   PAD
    0x2000006c   0x00000128   Zero   RW            2    .bss                main.o
    0x20000194   0x000000c8   Zero   RW          520    .bss                usart.o
    0x2000025c   0x00000400   Zero   RW          579    .bss                oled.o
    0x2000065c   0x00000060   Zero   RW          687    .bss                c_w.l(libspace.o)
    0x200006bc   0x00000004   PAD
    0x200006c0   0x00000200   Zero   RW          205    HEAP                startup_stm32f10x_hd.o
    0x200008c0   0x00000400   Zero   RW          204    STACK               startup_stm32f10x_hd.o


==============================================================================

Image component sizes


      Code (inc. data)   RO Data    RW Data    ZI Data      Debug   Object Name

       232          8          0          0          0       1075   adc.o
         0          0          0          0          0         32   core_cm3.o
       212         18          0          4          0       1027   delay.o
        56          4          0          0          0        519   gpio_init.o
      1624        200          0         56        296     266255   main.o
       220         22          0          0          0       1805   misc.o
       536         14          0          0          0       2127   myiic.o
      1236         20       6624          0       1024       5387   oled.o
        64         26        304          0       1536        788   startup_stm32f10x_hd.o
      1102         26          0          0          0      10841   stm32f10x_adc.o
       860         38          0          0          0       5649   stm32f10x_gpio.o
        26          0          0          0          0       1182   stm32f10x_it.o
       932         36          0         20          0       8824   stm32f10x_rcc.o
      3610         88          0          0          0      22136   stm32f10x_tim.o
      1032         22          0          0          0       8376   stm32f10x_usart.o
       480         38          0         20          0       1743   system_stm32f10x.o
        96          6          0          0          0        640   timer.o
       320         16          0          6        200       3154   usart.o

    ----------------------------------------------------------------------
     12644        582       6962        108       3056     341560   Object Totals
         0          0         32          0          0          0   (incl. Generated)
         6          0          2          2          0          0   (incl. Padding)

    ----------------------------------------------------------------------

      Code (inc. data)   RO Data    RW Data    ZI Data      Debug   Library Member Name

         8          0          0          0          0         68   __main.o
         0          0          0          0          0          0   __rtentry.o
        12          0          0          0          0          0   __rtentry2.o
         6          0          0          0          0          0   __rtentry4.o
        52          8          0          0          0          0   __scatter.o
        26          0          0          0          0          0   __scatter_copy.o
        28          0          0          0          0          0   __scatter_zi.o
        12          0          0          0          0         72   exit.o
         6          0          0          0          0        152   heapauxi.o
         2          0          0          0          0          0   libinit.o
         2          0          0          0          0          0   libinit2.o
         2          0          0          0          0          0   libshutdown.o
         2          0          0          0          0          0   libshutdown2.o
         8          4          0          0         96         68   libspace.o
         2          0          0          0          0          0   rtexit.o
        10          0          0          0          0          0   rtexit2.o
        74          0          0          0          0         80   sys_stackheap_outer.o
         2          0          0          0          0         68   use_no_semi.o
         2          0          0          0          0         68   use_no_semi_2.o
        98          4          0          0          0         92   d2f.o
       340         12          0          0          0        104   dmul.o
       156          4          0          0          0         92   dnaninf.o
        12          0          0          0          0         68   dretinf.o
        86          4          0          0          0         84   f2d.o
       450          8          0          0          0        236   faddsub_clz.o
        24          0          0          0          0         68   fcmpi.o
        54          4          0          0          0         84   ffix.o
        62          4          0          0          0         84   ffixu.o
        38          0          0          0          0         68   fflt_clz.o
       104          4          0          0          0         84   fleqf.o
       258          4          0          0          0         84   fmul.o
       140          4          0          0          0         84   fnaninf.o
        10          0          0          0          0         68   fretinf.o
        98          0          0          0          0         68   frleqf.o
         0          0          0          0          0          0   usenofp.o

    ----------------------------------------------------------------------
      2202         64          0          0        100       1944   Library Totals
        16          0          0          0          4          0   (incl. Padding)

    ----------------------------------------------------------------------

      Code (inc. data)   RO Data    RW Data    ZI Data      Debug   Library Name

       256         12          0          0         96        576   c_w.l
      1930         52          0          0          0       1368   fz_ws.l

    ----------------------------------------------------------------------
      2202         64          0          0        100       1944   Library Totals

    ----------------------------------------------------------------------

==============================================================================


      Code (inc. data)   RO Data    RW Data    ZI Data      Debug   

     14846        646       6962        108       3156     341108   Grand Totals
     14846        646       6962        108       3156     341108   ELF Image Totals
     14846        646       6962        108          0          0   ROM Totals

==============================================================================

    Total RO  Size (Code + RO Data)                21808 (  21.30kB)
    Total RW  Size (RW Data + ZI Data)              3264 (   3.19kB)
    Total ROM Size (Code + RO Data + RW Data)      21916 (  21.40kB)

==============================================================================

